:020000040800F2
:1000000000200020B9050008550500085D0500081E
:10001000650500086D050008750500080000000072
:100020000000000000000000000000007D05000846
:10003000890500080000000095050008A1050008DA
:100040000106000801060008010600080106000874
:100050000106000801060008010600080106000864
:100060000106000801060008010600080106000854
:100070000106000801060008010600080106000844
:100080000106000801060008010600080000000043
:100090000000000000000000000000000106000851
:1000A0000106000801060008010600080106000814
:1000B0000106000801060008010600080106000804
:1000C0000106000800000000000000000106000812
:1000D00001060008010600080106000801060008E4
:1000E00001060008010600080106000800000000E3
:1000F0000000000000000000000000000000000000
:1001000000000000000000000000000000000000EF
:1001100000000000000000000106000801060008C1
:1001200000000000000000000000000000000000CF
:1001300000000000000000000000000000000000BF
:1001400000000000000000000000000000000000AF
:10015000000000000000000000000000000000009F
:10016000000000000000000000000000000000008F
:10017000000000000000000000000000000000007F
:10018000000000000000000000000000000000006F
:10019000000000000000000000000000000000005F
:1001A000000000000000000000000000000000004F
:1001B000000000000000000000000000000000003F
:1001C0000000000000000000000000005FF808F1DF
:1001D00010B5054C237833B9044B13B10448AFF381
:1001E00000800123237010BD0C00002000000000DF
:1001F0007010000808B5034B1BB103490348AFF367
:10020000008008BD000000001000002070100008F1
:1002100080B400AF234B1B68224A43F48033136041
:1002200000BF204B1B6803F40033002BF9D01D4B9B
:100230001B681C4A43F4002313601A4B5B68194A7D
:1002400043F002035360174B5B68164A23F0F00338
:100250005360144B5B68134A43F480335360114B73
:100260005B68104A23F4701353600E4B1B680D4AF1
:1002700043F08073136000BF0A4B1B6803F00073E8
:10028000002BF9D0074B9B68064A43F4C0139360D8
:10029000044B9B68034A43F08003936000BFBD4654
:1002A00080BC70470010024080B400AF074B9B69D0
:1002B000064A43F004039361054B1B68044A23F08C
:1002C000F003136000BFBD4680BC704700100240C1
:1002D0000008014080B400AF1C4B9B691B4A43F4EB
:1002E000007393611A4B5B68194A43F4807353603F
:1002F000174B9B68164A43F481739360144B1B6938
:10030000134A43F03C031361114BDB6A104A23F498
:100310008013D3620E4B5B6B0D4A43F001035363B2
:100320000B4B9B680A4A43F480139360084B9B680D
:10033000074A43F460239360054B9B68044A43F0EB
:100340000103936000BFBD4680BC704700100240AF
:100350000024014080B400AF224B5B69214A43F086
:1003600001035361204B9A681F49204B13438B6054
:100370001D4BDB681E491C4A0B43D3601A4B1B689C
:10038000194A23F010031360174B1B68164A43F0F9
:1003900020031360144B1B68134A23F040031360BF
:1003A000114B1B68104A43F0800313600E4B1B680F
:1003B0000D4A43F4206313600B4B1B680A4A43F455
:1003C00040531360084B5B68074A43F001035360D6
:1003D000054B1B68044A43F00103136000BFBD4690
:1003E00080BC704700100240080002404C240140CD
:1003F0004800002080B500AF00F003F900F020F8BD
:1004000000F05AF8FFF704FFFFF74EFFFFF762FF17
:10041000FFF7A0FF074B9B68064A43F480039360F5
:10042000054B1B68054A13604FF4FA7000F042F95F
:1004300000BFF5E70024014028000020480000200C
:1004400080B590B000AF07F11803282200211846AC
:1004500000F0E2FD3B1D00221A605A609A60DA60EB
:100460001A610223BB610123BB621023FB620023DC
:100470007B6307F11803184600F024FA0346002BAB
:1004800001D000F02FF80F237B600023BB60002316
:10049000FB6000233B6100237B613B1D002118466C
:1004A00000F092FC0346002B01D000F01BF800BFC7
:1004B0004037BD4680BD000080B483B000AF084B1C
:1004C0009B69074A43F004039361054B9B6903F062
:1004D00004037B607B6800BF0C37BD4680BC70475F
:1004E0000010024080B400AF72B600BF00BFFDE74D
:1004F00080B485B000AF154B9B69144A43F00103EB
:100500009361124B9B6903F00103BB60BB680F4B07
:10051000DB690E4A43F08053D3610C4BDB6903F077
:1005200080537B607B680A4B5B68FB60FB6823F051
:10053000E063FB60FB6843F00073FB60044AFB6808
:10054000536000BF1437BD4680BC704700100240A6
:100550000000014080B400AF00BFFDE780B400AFF1
:1005600000BFFDE780B400AF00BFFDE780B400AF7F
:1005700000BFFDE780B400AF00BFFDE780B400AF6F
:1005800000BFBD4680BC704780B400AF00BFBD4611
:1005900080BC704780B400AF00BFBD4680BC7047D0
:1005A00080B500AF00F06AF800BF80BD80B400AF36
:1005B00000BFBD4680BC7047FFF7F8FF0B480C49F1
:1005C0000C4A002302E0D458C4500433C4188C42AF
:1005D000F9D3094A094C002301E013600432A24216
:1005E000FBD300F021FDFFF705FF7047000000205E
:1005F0000C000020C01000080C000020500000205B
:10060000FEE780B500AF032000F028F90F2000F0CE
:1006100005F8FFF76DFF0023184680BD80B582B056
:1006200000AF7860124B1A68124B1B7819464FF4D2
:100630007A73B3FBF1F3B2FBF3F3184600F035F92C
:100640000346002B01D001230EE07B680F2B0AD854
:10065000002279684FF0FF3000F00BF9064A7B6802
:100660001360002300E0012318460837BD4680BD13
:1006700000000020080000200400002080B400AF2B
:10068000054B1B781A46054B1B681344034A13603D
:1006900000BFBD4680BC7047080000204C00002011
:1006A00080B400AF024B1B681846BD4680BC704743
:1006B0004C00002080B584B000AF7860FFF7F0FFF9
:1006C000B8607B68FB60FB68B3F1FF3F05D00A4B65
:1006D0001B781A46FB681344FB6000BFFFF7E0FF7E
:1006E0000246BB68D31AFA689A42F7D800BF00BF27
:1006F0001037BD4680BD00BF0800002080B485B023
:1007000000AF78607B6803F00703FB600C4BDB688D
:10071000BB60BA684FF6FF031340BB60FB681A0268
:10072000BB68134343F0BF6343F40033BB60044A28
:10073000BB68D36000BF1437BD4680BC704700BFA4
:1007400000ED00E080B400AF044BDB681B0A03F04F
:1007500007031846BD4680BC704700BF00ED00E0AF
:1007600080B483B000AF03463960FB7197F907305E
:10077000002B0ADB3B68DAB20C4997F9073012010B
:10078000D2B20B4483F800230AE03B68DAB208498E
:10079000FB7903F00F03043B1201D2B20B441A762B
:1007A00000BF0C37BD4680BC704700BF00E100E0D1
:1007B00000ED00E080B489B000AFF860B9607A6005
:1007C000FB6803F00703FB61FB69C3F10703042B1C
:1007D00028BF0423BB61FB690433062B02D9FB69E4
:1007E000033B00E000237B614FF0FF32BB6902FA5C
:1007F00003F3DA43BB681A407B699A404FF0FF313C
:100800007B6901FA03F3D9437B680B401343184615
:100810002437BD4680BC704780B582B000AF786099
:100820007B68013BB3F1807F01D301230FE00A4ACB
:100830007B68013B53600F214FF0FF30FFF790FFC3
:10084000054B00229A60044B07221A6000231846C9
:100850000837BD4680BD00BF10E000E080B582B023
:1008600000AF78607868FFF749FF00BF0837BD46E2
:1008700080BD80B586B000AF0346B9607A60FB7377
:1008800000237B61FFF75EFF78617A68B968786959
:10089000FFF790FF024697F90F3011461846FFF711
:1008A0005FFF00BF1837BD4680BD80B582B000AF86
:1008B00078607868FFF7B0FF034618460837BD46F2
:1008C00080BD000080B586B000AF78607B68002BEB
:1008D00001D1012372E27B681B6803F00103002B46
:1008E00000F08780924B5B6803F00C03042B0CD064
:1008F0008F4B5B6803F00C03082B12D18C4B5B68A9
:1009000003F48033B3F5803F0BD1894B1B6803F4AC
:100910000033002B6CD07B685B68002B68D101230F
:100920004CE27B685B68B3F5803F06D1804B1B6867
:100930007F4A43F4803313602EE07B685B68002BB2
:100940000CD17B4B1B687A4A23F480331360784BBD
:100950001B68774A23F4802313601DE07B685B6883
:10096000B3F5A02F0CD1724B1B68714A43F480235E
:1009700013606F4B1B686E4A43F4803313600BE0C7
:100980006B4B1B686A4A23F480331360684B1B6807
:10099000674A23F4802313607B685B68002B13D0C5
:1009A000FFF77EFE386108E0FFF77AFE02463B69FA
:1009B000D31A642B01D9032300E25D4B1B6803F4B7
:1009C0000033002BF0D014E0FFF76AFE386108E036
:1009D000FFF766FE02463B69D31A642B01D9032355
:1009E000ECE1534B1B6803F40033002BF0D100E023
:1009F00000BF7B681B6803F00203002B63D04C4BE5
:100A00005B6803F00C03002B0BD0494B5B6803F0D1
:100A10000C03082B1CD1464B5B6803F48033002B7E
:100A200016D1434B1B6803F00203002B05D07B68F3
:100A30001B69012B01D00123C0E13D4B1B6823F052
:100A4000F8027B685B69DB00394913430B603AE0CD
:100A50007B681B69002B20D0364B01221A60FFF700
:100A60001FFE386108E0FFF71BFE02463B69D31A00
:100A7000022B01D90323A1E12D4B1B6803F00203D4
:100A8000002BF0D02A4B1B6823F0F8027B685B69CF
:100A9000DB00274913430B6015E0264B00221A6048
:100AA000FFF7FEFD386108E0FFF7FAFD02463B69FB
:100AB000D31A022B01D9032380E11D4B1B6803F0DD
:100AC0000203002BF0D17B681B6803F00803002BA6
:100AD0003AD07B689B69002B19D0174B01221A6012
:100AE000FFF7DEFD386108E0FFF7DAFD02463B69FB
:100AF000D31A022B01D9032360E10D4B5B6A03F08B
:100B00000203002BF0D0012000F068FA1CE00A4B31
:100B100000221A60FFF7C4FD38610FE0FFF7C0FD47
:100B200002463B69D31A022B08D9032346E100BFD2
:100B3000001002400000424280044242924B5B6A35
:100B400003F00203002BE9D17B681B6803F0040368
:100B5000002B00F0A6800023FB758B4BDB6903F0B4
:100B60008053002B0DD1884BDB69874A43F08053BB
:100B7000D361854BDB6903F08053BB60BB68012305
:100B8000FB75824B1B6803F48073002B18D17F4BDD
:100B90001B687E4A43F480731360FFF781FD386160
:100BA00008E0FFF77DFD02463B69D31A642B01D9AB
:100BB000032303E1754B1B6803F48073002BF0D013
:100BC0007B68DB68012B06D16F4B1B6A6E4A43F0D2
:100BD000010313622DE07B68DB68002B0CD16A4BAC
:100BE0001B6A694A23F001031362674B1B6A664A5A
:100BF00023F0040313621CE07B68DB68052B0CD137
:100C0000614B1B6A604A43F0040313625E4B1B6A2C
:100C10005D4A43F0010313620BE05B4B1B6A5A4AC7
:100C200023F001031362584B1B6A574A23F0040355
:100C300013627B68DB68002B15D0FFF731FD38614C
:100C40000AE0FFF72DFD02463B69D31A41F28832D4
:100C5000934201D90323B1E04B4B1B6A03F002031B
:100C6000002BEED014E0FFF71BFD38610AE0FFF720
:100C700017FD02463B69D31A41F28832934201D9EB
:100C800003239BE0404B1B6A03F00203002BEED1D1
:100C9000FB7D012B05D13C4BDB693B4A23F08053A4
:100CA000D3617B68DB69002B00F08780364B5B6883
:100CB00003F00C03082B61D07B68DB69022B46D163
:100CC000334B00221A60FFF7EBFC386108E0FFF7B6
:100CD000E7FC02463B69D31A022B01D903236DE0DE
:100CE000294B1B6803F00073002BF0D17B681B6A53
:100CF000B3F5803F08D1244BDB6A23F00F027B68F9
:100D00009B6821491343CB621F4B5B6823F4741229
:100D10007B68196A7B685B6A0B431B4913434B6012
:100D20001B4B01221A60FFF7BBFC386108E0FFF79C
:100D3000B7FC02463B69D31A022B01D903233DE0DD
:100D4000114B1B6803F00073002BF0D035E0104B03
:100D500000221A60FFF7A4FC386108E0FFF7A0FC4E
:100D600002463B69D31A022B01D9032326E0064B26
:100D70001B6803F00073002BF0D11EE07B68DB6979
:100D8000012B07D1012319E0001002400070004040
:100D9000600042420B4B5B68FB60FB6803F48032EF
:100DA0007B681B6A9A4206D1FB6803F470127B6869
:100DB0005B6A9A4201D0012300E0002318461837ED
:100DC000BD4680BD0010024080B584B000AF7860A1
:100DD00039607B68002B01D10123A0E07B681B6890
:100DE00003F00203002B20D07B681B6803F0040390
:100DF000002B05D04C4B5B684B4A43F4E0635360D7
:100E00007B681B6803F00803002B05D0464B5B682A
:100E1000454A43F460535360434B5B6823F0F00250
:100E20007B689B68404913434B607B681B6803F0F9
:100E30000103002B40D07B685B68012B07D13A4B44
:100E40001B6803F40033002B15D1012367E07B6896
:100E50005B68022B07D1344B1B6803F00073002B37
:100E600009D101235BE0304B1B6803F00203002B28
:100E700001D1012353E02C4B5B6823F003027B6814
:100E80005B68294913434B60FFF70AFCF8600AE0EE
:100E9000FFF706FC0246FB68D31A41F28832934200
:100EA00001D903233BE0204B5B6803F00C027B6815
:100EB0005B689B009A42EBD17B681B6803F00403DC
:100EC000002B08D0184B5B6823F4E0627B68DB687A
:100ED000154913434B607B681B6803F00803002B24
:100EE00009D0114B5B6823F460527B681B69DB00FF
:100EF0000D4913434B6000F01FF802460A4B5B6834
:100F00001B0903F00F030949CB5C22FA03F3084ADB
:100F10001360084B1B681846FFF780FB0023184638
:100F20001037BD4680BD00BF001002408810000889
:100F3000000000200400002080B487B000AF002330
:100F4000FB600023BB6000237B6100237B600023E8
:100F50003B611D4B5B68FB60FB6803F00C03042BDB
:100F600002D0082B03D026E0184B3B6126E0FB683B
:100F70009B0C03F00F03164AD35C7B60FB6803F401
:100F80008033002B0FD0104BDB6A03F00F03114AA4
:100F9000D35CBB607B680D4A03FB02F2BB68B2FB0B
:100FA000F3F37B6104E07B680B4A02FB03F37B6194
:100FB0007B693B6102E0054B3B6100BF3B69184622
:100FC0001C37BD4680BC70470010024000127A00FA
:100FD00098100008A810000800093D0080B485B0F2
:100FE00000AF78600A4B1B680A4AA2FB03235B0A26
:100FF0007A6802FB03F3FB6000BFFB685A1EFA60CD
:10100000002BF9D100BF00BF1437BD4680BC70472C
:1010100000000020D34D621003460244934200D1E9
:10102000704703F8011BF9E770B500260C4D0D4C15
:10103000641BA410A64209D100F01AF800260A4D3C
:101040000A4C641BA410A64205D170BD55F8043BA0
:1010500098470136EEE755F8043B98470136F2E72A
:10106000B8100008B8100008B8100008BC1000083C
:10107000F8B500BFF8BC08BC9E467047F8B500BF85
:08108000F8BC08BC9E46704755
:101088000000000000000000010203040607080930
:1010980002030405060708090A0B0C0D0E0F1010B1
:1010A8000102030405060708090A0B0C0D0E0F10B0
:0410B800F501000836
:0410BC00D101000856
:0C10C0000024F4001000000001000000FB
:04000005080005B931
:00000001FF
