:020000040800F2
:100000000050002045130008CD120008D51200084A
:10001000DD120008E5120008ED12000800000000E3
:10002000000000000000000000000000F5120008C1
:1000300001130008000000000D1300081913000848
:100040008D1300088D1300088D1300088D13000810
:100050008D1300088D1300088D1300088D13000800
:100060008D1300088D1300088D1300088D130008F0
:100070008D1300088D1300088D1300082513000848
:100080008D1300088D1300088D1300088D130008D0
:100090008D1300088D1300088D1300088D130008C0
:1000A0008D1300088D1300088D1300088D130008B0
:1000B0008D1300088D1300088D1300088D130008A0
:1000C0008D1300088D1300088D1300088D13000890
:1000D0008D1300088D1300088D1300088D13000880
:1000E0008D1300088D1300088D1300080000000018
:1000F0000000000000000000000000000000000000
:0C01000000000000000000005FF808F1A3
:1001100010B5054C237833B9044B13B10448AFF341
:1001200000800123237010BD0C000020000000009F
:10013000083B000808B5034B1BB103490348AFF364
:10014000008008BD0000000010000020083B0008EF
:1001500081F0004102E000BF83F0004330B54FEA78
:1001600041044FEA430594EA050F08BF90EA020FE5
:100170001FBF54EA000C55EA020C7FEA645C7FEA78
:10018000655C00F0E2804FEA5454D4EB5555B8BF9B
:100190006D420CDD2C4480EA020281EA030382EA0C
:1001A000000083EA010180EA020281EA0303362D9E
:1001B00088BF30BD11F0004F4FEA01314FF4801C71
:1001C0004CEA113102D0404261EB410113F0004F83
:1001D0004FEA03334CEA133302D0524263EB43033A
:1001E00094EA050F00F0A780A4F10104D5F1200ED8
:1001F0000DDB02FA0EFC22FA05F2801841F1000133
:1002000003FA0EF2801843FA05F359410EE0A5F106
:1002100020050EF1200E012A03FA0EFC28BF4CF037
:10022000020C43FA05F3C01851EBE37101F00045ED
:1002300007D54FF0000EDCF1000C7EEB00006EEBFA
:100240000101B1F5801F1BD3B1F5001F0CD3490884
:100250005FEA30004FEA3C0C04F101044FEA4452DB
:1002600012F5800F80F09A80BCF1004F08BF5FEA62
:10027000500C50F1000041EB045141EA050130BD42
:100280005FEA4C0C404141EB0101013C28BFB1F554
:10029000801FE9D291F0000F04BF01460020B1FA9F
:1002A00081F308BF2033A3F10B03B3F120020CDA72
:1002B0000C3208DD02F1140CC2F10C0201FA0CF050
:1002C00021FA02F10CE002F11402D8BFC2F1200CB5
:1002D00001FA02F120FA0CFCDCBF41EA0C0190406B
:1002E000E41AA2BF01EB0451294330BD6FEA0404B4
:1002F0001F3C1CDA0C340EDC04F11404C4F120029F
:1003000020FA04F001FA02F340EA030021FA04F3B0
:1003100045EA030130BDC4F10C04C4F1200220FA07
:1003200002F001FA04F340EA0300294630BD21FA45
:1003300004F0294630BD94F0000F83F4801306BF0B
:1003400081F480110134013D4EE77FEA645C18BFFF
:100350007FEA655C29D094EA050F08BF90EA020F96
:1003600005D054EA000C04BF1946104630BD91EA8E
:10037000030F1EBF0021002030BD5FEA545C05D191
:100380004000494128BF41F0004130BD14F58004D0
:100390003CBF01F5801130BD01F0004545F0FE4144
:1003A00041F470014FF0000030BD7FEA645C1ABF79
:1003B000194610467FEA655C1CBF0B46024650EAB0
:1003C000013406BF52EA033591EA030F41F40021DC
:1003D00030BD00BF90F0000F04BF0021704730B562
:1003E0004FF4806404F132044FF000054FF0000137
:1003F00050E700BF90F0000F04BF0021704730B5F8
:100400004FF4806404F1320410F0004548BF4042CC
:100410004FF000013EE700BF42004FEAE2014FEA21
:1004200031014FEA02701FBF12F07F4393F07F4FFC
:1004300081F06051704732F07F4208BF704793F0FF
:100440007F4F04BF41F40021704730B54FF4607412
:1004500001F0004521F000411CE700BF50EA010215
:1004600008BF704730B54FF000050AE050EA0102BE
:1004700008BF704730B511F0004502D5404261EB2E
:1004800041014FF4806404F132045FEA915C3FF46F
:10049000D8AE4FF003025FEADC0C18BF03325FEA0C
:1004A000DC0C18BF033202EBDC02C2F1200300FABD
:1004B00003FC20FA02F001FA03FE40EA0E0021FAE2
:1004C00002F11444BDE600BF70B54FF0FF0C4CF4D0
:1004D000E06C1CEA11541DBF1CEA135594EA0C0F82
:1004E00095EA0C0F00F0DEF82C4481EA030621EABD
:1004F0004C5123EA4C5350EA013518BF52EA0335F8
:1005000041F4801143F4801338D0A0FB02CE4FF0A9
:100510000005E1FB02E506F00042E0FB03E54FF0D9
:100520000006E1FB03569CF0000F18BF4EF0010ED1
:10053000A4F1FF04B6F5007F64F5407404D25FEACD
:100540004E0E6D4146EB060642EAC62141EA555180
:100550004FEAC52040EA5E504FEACE2EB4F1FD0CC2
:1005600088BFBCF5E06F1ED8BEF1004F08BF5FEA40
:10057000500E50F1000041EB045170BD06F00046F2
:1005800046EA010140EA020081EA0301B4EB5C049F
:10059000C2BFD4EB0C0541EA045170BD41F4801197
:1005A0004FF0000E013C00F3AB8014F1360FDEBFBC
:1005B000002001F0004170BDC4F10004203C35DA98
:1005C0000C341BDC04F11404C4F1200500FA05F31B
:1005D00020FA04F001FA05F240EA020001F00042BC
:1005E00021F0004110EBD37021FA04F642EB060132
:1005F0005EEA430E08BF20EAD37070BDC4F10C045C
:10060000C4F1200500FA04F320FA05F001FA04F21F
:1006100040EA020001F0004110EBD37041F100010B
:100620005EEA430E08BF20EAD37070BDC4F1200516
:1006300000FA05F24EEA020E20FA04F301FA05F27E
:1006400043EA020321FA04F001F0004121FA04F226
:1006500020EA020000EBD3705EEA430E08BF20EAF6
:10066000D37070BD94F0000F0FD101F00046400030
:1006700041EB010111F4801F08BF013CF7D041EAB2
:10068000060195F0000F18BF704703F000465200B6
:1006900043EB030313F4801F08BF013DF7D043EA87
:1006A0000603704794EA0C0F0CEA135518BF95EA3D
:1006B0000C0F0CD050EA410618BF52EA4306D1D1C4
:1006C00081EA030101F000414FF0000070BD50EAE3
:1006D000410606BF1046194652EA430619D094EA6D
:1006E0000C0F02D150EA013613D195EA0C0F05D157
:1006F00052EA03361CBF104619460AD181EA0301AB
:1007000001F0004141F0FE4141F470014FF0000062
:1007100070BD41F0FE4141F4780170BD70B54FF0FD
:10072000FF0C4CF4E06C1CEA11541DBF1CEA13557D
:1007300094EA0C0F95EA0C0F00F0A7F8A4EB05045F
:1007400081EA030E52EA03354FEA013100F0888056
:100750004FEA03334FF0805545EA131343EA12631F
:100760004FEA022245EA111545EA10654FEA0026D4
:100770000EF000419D4208BF964244F1FD0404F58D
:10078000407402D25B084FEA3202B61A65EB0305E9
:100790005B084FEA32024FF480104FF4002CB6EBA6
:1007A000020E75EB030E22BFB61A754640EA0C0026
:1007B0005B084FEA3202B6EB020E75EB030E22BF66
:1007C000B61A754640EA5C005B084FEA3202B6EBA7
:1007D000020E75EB030E22BFB61A754640EA9C0066
:1007E0005B084FEA3202B6EB020E75EB030E22BF36
:1007F000B61A754640EADC0055EA060E18D04FEAF4
:10080000051545EA16754FEA06164FEAC30343EA93
:1008100052734FEAC2025FEA1C1CC0D111F4801F60
:100820000BD141EA00014FF000004FF0004CB6E759
:1008300011F4801F04BF01430020B4F1FD0C88BFF8
:10084000BCF5E06F3FF6AFAEB5EB030C04BFB6EB03
:10085000020C5FEA500C50F1000041EB045170BDF6
:100860000EF0004E4EEA113114EB5C04C2BFD4EB23
:100870000C0541EA045170BD41F480114FF0000EA7
:10088000013C90E645EA060E8DE60CEA135594EA23
:100890000C0F08BF95EA0C0F3FF43BAF94EA0C0F26
:1008A0000AD150EA01347FF434AF95EA0C0F7FF49B
:1008B00025AF104619462CE795EA0C0F06D152EAEF
:1008C00003353FF4FDAE1046194622E750EA4106D3
:1008D00018BF52EA43067FF4C5AE50EA41047FF4E4
:1008E0000DAF52EA43057FF4EBAE12E74FF0FF3C49
:1008F00006E000BF4FF0010C02E000BF4FF0010C1A
:100900004DF804CD4FEA410C7FEA6C5C4FEA430C92
:1009100018BF7FEA6C5C1BD001B050EA410C0CBFE1
:1009200052EA430C91EA030F02BF90EA020F002043
:10093000704710F1000F91EA030F58BF994208BFAA
:1009400090422CBFD8176FEAE37040F00100704767
:100950004FEA410C7FEA6C5C02D150EA013C07D1BE
:100960004FEA430C7FEA6C5CD6D152EA033CD3D009
:100970005DF8040B704700BF8446104662468C4603
:100980001946634600E000BF01B5FFF7B7FF002836
:1009900048BF10F1000F01BD4DF808EDFFF7F4FF5F
:1009A0000CBF012000205DF808FB00BF4DF808EDEA
:1009B000FFF7EAFF34BF012000205DF808FB00BF0D
:1009C0004DF808EDFFF7E0FF94BF012000205DF82F
:1009D00008FB00BF4DF808EDFFF7CEFF94BF0120E4
:1009E00000205DF808FB00BF4DF808EDFFF7C4FFDD
:1009F00034BF012000205DF808FB00BF4FEA410230
:100A000012F5001215D211D56FF47873B3EB625260
:100A100012D94FEAC12343F0004343EA505311F087
:100A2000004F23FA02F018BF404270474FF0000019
:100A3000704750EA013005D111F0004008BF6FF057
:100A4000004070474FF00000704700BF4A0011D2CD
:100A500012F5001211D20DD56FF47873B3EB625218
:100A60000ED44FEAC12343F0004343EA505323FA24
:100A700002F070474FF00000704750EA013002D199
:100A80004FF0FF3070474FF00000704780B500AF67
:100A900000F04CF80021212000F05EF8034683F0BE
:100AA0000103DBB2002B01D000233CE000218420B5
:100AB00000F052F8034683F00103DBB2002B01D0B3
:100AC000002330E00021042000F046F8034683F0C4
:100AD0000103DBB2002B01D0002324E0002113200E
:100AE00000F03AF8034683F00103DBB2002B01D09B
:100AF000002318E00021202000F02EF8034683F0A8
:100B00000103DBB2002B01D000230CE000210C20FC
:100B100000F022F8034683F00103DBB2002B01D082
:100B2000002300E00123184680BD000080B500AF1F
:100B300000224FF48061074801F030F9642000F092
:100B400089FC01224FF48061024801F027F900BFBF
:100B500080BD00BF0008014080B582B000AF0346F1
:100B60000A46FB711346BB71BB79002B0CD10022E6
:100B70004FF48071194801F011F900224FF400710F
:100B8000164801F00BF917E0BB79012B0CD10122BB
:100B90004FF48071114801F001F900224FF4007107
:100BA0000E4801F0FBF807E001224FF400710B48FA
:100BB00001F0F4F800230CE0FB1D0122194608485F
:100BC00001F066FD01224FF40071044801F0E6F8DF
:100BD000012318460837BD4680BD00BF000801400C
:100BE0002402002080B500AF00218020FFF7B4FF71
:100BF000034683F00103DBB2002B01D0002311E098
:100C000000214020FFF7A8FF034683F00103DBB279
:100C1000002B01D0002305E04FF4FC71024800F0E6
:100C200005F80123184680BD2800002080B582B059
:100C300000AF78600B467B8000224FF400710948BA
:100C400001F0ACF801224FF48071064801F0A6F8DB
:100C50007B881A467968044801F01AFD00BF0837FE
:100C6000BD4680BD000801402402002080B483B04E
:100C700000AF0346FB710B46BB7113467B71FB79DA
:100C8000532B48D8BB79532B45D8BB79DB08DBB253
:100C90001A46520013441A46D200D31A9B009AB245
:100CA000FB799BB213449AB21D4B1A80BB7903F0B7
:100CB0000703DAB21B4B1A707B79002B14D0184B48
:100CC0001B881A46184B9B5C5AB2164B1B78194668
:100CD00001238B405BB2134359B2114B1B881A4658
:100CE000C9B2114B995417E00D4B1B881A460E4B95
:100CF0009B5C5AB20B4B1B78194601238B405BB2AD
:100D0000DB435BB2134059B2054B1B881A46C9B28C
:100D1000054B995400E000BF0C37BD4680BC7047BE
:100D200022020020200200202800002000000000F5
:100D30002DE9B0438AB000AF00F02AFB00F04EF975
:100D400000F0E2F900F0C2F900F08AF9FFF79EFE28
:100D5000002387F82730002387F82630002387F800
:100D60002630002387F8273030E097F8273001221B
:100D700019460020FFF77AFF97F82630012200215C
:100D80001846FFF773FF97F82730C3F12F03DBB244
:100D9000012219465320FFF769FF97F82630C3F167
:100DA0005303DBB201222F211846FFF75FFF3220E9
:100DB00000F050FBFFF716FF97F82630013387F855
:100DC000263097F82730013387F8273097F82630F8
:100DD000532BCAD997F827302F2BC6D92A233B612A
:100DE0001823FB600F23BB6000233B6277E03220B7
:100DF00000F030FB3869FFF7FDFA04460D46B8688D
:100E0000FFF7F8FA80468946386AFFF7F3FA70A3CD
:100E1000D3E90023FFF758FB02460B46104619465C
:100E20004FF000026C4BFFF779FC02460B46104670
:100E3000194601F04DFE02460B4640464946FFF773
:100E400043FB02460B4620462946FFF787F9024638
:100E50000B4610461946FFF7F9FD0346FB71F8688B
:100E6000FFF7C8FA04460D46B868FFF7C3FA804694
:100E70008946386AFFF7BEFA55A3D3E90023FFF786
:100E800023FB02460B46104619464FF00002524B18
:100E9000FFF744FC02460B461046194601F05EFE81
:100EA00002460B4640464946FFF70EFB02460B46FC
:100EB00020462946FFF752F902460B4610461946CE
:100EC000FFF7C4FD0346BB71B979FB7901221846CF
:100ED000FFF7CCFEFFF786FE3B6A01333B623B6ABD
:100EE000B3F5B47F83DB4FF0FF33FB614DE04FF090
:100EF000FF33BB6143E0BB68DA0F13445B105B4216
:100F0000DAB23B69DBB21344DAB2FB69DBB21344F9
:100F1000D8B2BB68002B00DA03339B105B42DAB215
:100F2000FB68DBB21344DAB2BB69DBB21344DBB259
:100F300001221946FFF79AFEBB68DA0F13445B10D3
:100F4000DAB23B69DBB21344DAB2FB69DBB21344B9
:100F5000D8B2BB68002B00DA03339B105B42DAB2D5
:100F6000FB68DBB21344DAB2BB69DBB21344DBB219
:100F700001221946FFF77AFEBB690133BB61BB69E9
:100F8000012BB8DDFB690133FB61FB69012BAEDD91
:100F900000237B6116E03B69DAB27B69DBB2134464
:100FA000D8B2BB68002B00DA03339B10DAB2FB68BF
:100FB000DBB21344DBB201221946FFF757FE7B690F
:100FC00001337B617B69032BE5DDC1E6AFF3008074
:100FD0006E861BF0F92109400080664080B590B014
:100FE00000AF07F1180328220021184601F044FD44
:100FF0003B1D00221A605A609A60DA601A6102236F
:10100000BB610123BB621023FB6202237B630023CD
:10101000BB634FF46013FB6307F11803184600F03D
:10102000D5FE0346002B01D000F0AEF80F237B6005
:101030000223BB600023FB604FF480633B6100230D
:101040007B613B1D0221184601F042F90346002B4B
:1010500001D000F099F800BF4037BD4680BD0000C8
:1010600080B500AF174B184A1A60164B4FF48272C6
:101070005A60144B00229A60124B0022DA60114B26
:1010800000221A610F4B00225A610E4B4FF400727E
:101090009A610C4B0822DA610A4B00221A62094B52
:1010A00000225A62074B00229A62064B0A22DA6239
:1010B000044801F069FA0346002B01D000F064F8FF
:1010C00000BF80BD240200200038004080B582B0FF
:1010D00000AF0C4B5B690B4A43F001035361094BB2
:1010E0005B6903F001037B607B68002200210F2015
:1010F00000F0ABFA0F2000F0C4FA00BF0837BD467D
:1011000080BD00BF0010024080B586B000AF07F17F
:10111000080300221A605A609A60DA60184B9B69D3
:10112000174A43F004039361154B9B6903F00403D2
:101130007B607B68124B9B69114A43F00803936103
:101140000F4B9B6903F008033B603B6800224FF4A0
:10115000E4610C4800F022FE4FF4E463BB6001231D
:10116000FB6000233B6102237B6107F10803194602
:10117000044800F08FFC00BF1837BD4680BD00BF9B
:10118000001002400008014080B400AF72B600BFFA
:1011900000BFFDE780B485B000AF154B9B69144AD2
:1011A00043F001039361124B9B6903F00103BB60A1
:1011B000BB680F4BDB690E4A43F08053D3610C4B85
:1011C000DB6903F080537B607B680A4B5B68FB60E4
:1011D000FB6823F0E063FB60FB6843F00073FB6097
:1011E000044AFB68536000BF1437BD4680BC70479B
:1011F000001002400000014080B588B000AF786068
:1012000007F1100300221A605A609A60DA607B6866
:101210001B68294A93424AD1284BDB69274A43F489
:101220008043D361254BDB6903F48043FB60FB689B
:10123000224B9B69214A43F0080393611F4B9B6932
:1012400003F00803BB60BB684FF420433B610223FB
:101250007B610323FB6107F110031946184800F076
:1012600019FC184B184A1A60164B10225A60154B7D
:1012700000229A60134B8022DA60124B00221A611E
:10128000104B00225A610F4B00229A610D4B002235
:10129000DA610C4800F010FA0346002B01D0FFF78A
:1012A00073FF7B68074A9A64064A7B68536200BFF3
:1012B0002037BD4680BD00BF00380040001002400E
:1012C000000C01407C0200205800024080B400AFB6
:1012D00000BFFDE780B400AF00BFFDE780B400AF02
:1012E00000BFFDE780B400AF00BFFDE780B400AFF2
:1012F00000BFFDE780B400AF00BFBD4680BC7047B3
:1013000080B400AF00BFBD4680BC704780B400AF62
:1013100000BFBD4680BC704780B500AF00F07EF8CE
:1013200000BF80BD80B500AF024800F07FFA00BF6B
:1013300080BD00BF7C02002080B400AF00BFBD466E
:1013400080BC7047FFF7F8FF0B480C490C4A00239C
:1013500002E0D458C4500433C4188C42F9D3094A6B
:10136000094C002301E013600432A242FBD301F0D8
:101370008BFBFFF7DDFC7047000000200C00002015
:10138000283D00080C000020C4020020FEE70000F9
:1013900080B500AF084B1B68074A43F01003136089
:1013A000032000F047F90F2000F008F8FFF7F2FEE5
:1013B0000023184680BD00BF0020024080B582B0E7
:1013C00000AF7860124B1A68124B1B7819464FF425
:1013D0007A73B3FBF1F3B2FBF3F3184600F05FF955
:1013E0000346002B01D001230EE07B680F2B0AD8A7
:1013F000002279684FF0FF3000F027F9064A7B6839
:101400001360002300E0012318460837BD4680BD65
:1014100000000020080000200400002080B400AF7D
:10142000054B1B781A46054B1B681344034A13608F
:1014300000BFBD4680BC704708000020C0020020ED
:1014400080B400AF024B1B681846BD4680BC704795
:10145000C002002080B584B000AF7860FFF7F0FFD5
:10146000B8607B68FB60FB68B3F1FF3F05D00A4BB7
:101470001B781A46FB681344FB6000BFFFF7E0FFD0
:101480000246BB68D31AFA689A42F7D800BF00BF79
:101490001037BD4680BD00BF0800002080B485B075
:1014A00000AF78607B6803F00703FB600C4BDB68E0
:1014B000BB60BA684FF6FF031340BB60FB681A02BB
:1014C000BB68134343F0BF6343F40033BB60044A7B
:1014D000BB68D36000BF1437BD4680BC704700BFF7
:1014E00000ED00E080B400AF044BDB681B0A03F0A2
:1014F00007031846BD4680BC704700BF00ED00E002
:1015000080B483B000AF0346FB7197F90730002B1E
:101510000BDBFB7903F01F02064997F907305B09E3
:10152000012000FA02F241F8232000BF0C37BD462B
:1015300080BC704700E100E080B483B000AF034698
:101540003960FB7197F90730002B0ADB3B68DAB290
:101550000C4997F907301201D2B20B4483F80023EB
:101560000AE03B68DAB20849FB7903F00F03043B59
:101570001201D2B20B441A7600BF0C37BD4680BCB4
:10158000704700BF00E100E000ED00E080B489B0EA
:1015900000AFF860B9607A60FB6803F00703FB6195
:1015A000FB69C3F10703042B28BF0423BB61FB695C
:1015B0000433062B02D9FB69033B00E000237B6167
:1015C0004FF0FF32BB6902FA03F3DA43BB681A40FB
:1015D0007B699A404FF0FF317B6901FA03F3D943ED
:1015E0007B680B40134318462437BD4680BC7047C8
:1015F00080B582B000AF78607B68013BB3F1807F3B
:1016000001D301230FE00A4A7B68013B53600F219D
:101610004FF0FF30FFF790FF054B00229A60044B1C
:1016200007221A60002318460837BD4680BD00BF58
:1016300010E000E080B582B000AF78607868FFF716
:101640002DFF00BF0837BD4680BD80B586B000AF16
:101650000346B9607A60FB7300237B61FFF742FFAA
:1016600078617A68B9687869FFF790FF024697F960
:101670000F3011461846FFF75FFF00BF1837BD4611
:1016800080BD80B582B000AF0346FB7197F907308B
:101690001846FFF735FF00BF0837BD4680BD80B54F
:1016A00082B000AF78607868FFF7A2FF0346184663
:1016B0000837BD4680BD000080B485B000AF7860BB
:1016C0000023FB607B68002B01D1012343E07B6892
:1016D0001B681A46224B1344224AA2FB03231B0910
:1016E0009A007B681A647B681F4ADA637B6802226F
:1016F00083F821207B681B681B68FB60FB6823F470
:101700007F5323F03003FB607B685A687B689B68DB
:101710001A437B68DB681A437B681B691A437B6842
:101720005B691A437B689B691A437B68DB691343D7
:10173000FA681343FB607B681B68FA681A607B6871
:1017400000229A637B68012283F821207B680022B3
:1017500083F82020002318461437BD4680BC70470C
:10176000F8FFFDBFCDCCCCCC0000024080B586B0E8
:1017700000AFF860B9607A603B600023FB75FB68DE
:1017800093F82030012B01D102234BE0FB680122AA
:1017900083F82020FB6893F82130DBB2012B3AD18B
:1017A000FB68022283F82120FB6800229A63FB6811
:1017B0001B681A68FB681B6822F001021A603B680C
:1017C0007A68B968F86800F037F9FB68DB6A002BC3
:1017D00008D0FB681B681A68FB681B6842F00E02A1
:1017E0001A600FE0FB681B681A68FB681B6822F030
:1017F00004021A60FB681B681A68FB681B6842F0E9
:101800000A021A60FB681B681A68FB681B6842F0D2
:1018100001021A6005E0FB68002283F82020022301
:10182000FB75FB7D18461837BD4680BD80B584B07A
:1018300000AF78607B68DB6B1B68FB607B681B68B4
:101840001B68BB607B681B6C04229A40FB681340DA
:10185000002B4FD0BB6803F00403002B4AD07B68F9
:101860001B681B6803F02003002B07D17B681B68F3
:101870001A687B681B6822F004021A607B681B6888
:10188000664A934229D07B681B68654A934222D0FE
:101890007B681B68634A93421AD07B681B68624A64
:1018A000934212D07B681B68604A93420AD07B68DF
:1018B0001B685F4A934202D14FF480030EE04FF061
:1018C00080630BE04FF4802308E04FF4804305E091
:1018D0004FF4806302E0402300E00423554A536044
:1018E0007B68DB6A002B00F094807B68DB6A786899
:1018F00098478EE07B681B6C02229A40FB6813407D
:10190000002B56D0BB6803F00203002B51D07B683C
:101910001B681B6803F02003002B0BD17B681B683E
:101920001A687B681B6822F00A021A607B68012231
:1019300083F821207B681B68384A934229D07B6852
:101940001B68374A934222D07B681B68354A934212
:101950001AD07B681B68344A934212D07B681B689C
:10196000324A93420AD07B681B68314A934202D1C3
:101970004FF400130EE04FF000730BE04FF4003310
:1019800008E04FF4005305E04FF4007302E0202319
:1019900000E00223274A53607B68002283F820205E
:1019A0007B689B6A002B34D07B689B6A7868984779
:1019B0002FE07B681B6C08229A40FB681340002BC9
:1019C00028D0BB6803F00803002B23D07B681B687A
:1019D0001A687B681B6822F00E021A607B681A6C1A
:1019E0007B68DB6B012101FA02F25A607B680122FD
:1019F0009A637B68012283F821207B68002283F8A8
:101A000020207B681B6B002B04D07B681B6B7868E5
:101A1000984700BF00BF1037BD4680BD0800024098
:101A20001C000240300002404400024058000240C6
:101A30006C0002400000024080B485B000AFF86046
:101A4000B9607A603B60FB681A6CFB68DB6B012154
:101A500001FA02F25A60FB681B683A685A60FB6838
:101A60005B68102B08D1FB681B687A689A60FB687A
:101A70001B68BA68DA6007E0FB681B68BA689A609E
:101A8000FB681B687A68DA6000BF1437BD4680BC0B
:101A90007047000080B48BB000AF786039600023DD
:101AA0007B6200233B6269E101227B6A02FA03F355
:101AB000FB613B681B68FA691340BB61BA69FB694B
:101AC0009A4240F058813B685B689A4A93425ED0E4
:101AD000984A934275D8984A934258D0964A93426E
:101AE0006FD8964A934252D0944A934269D8944A06
:101AF00093424CD0924A934263D8924A934246D042
:101B0000904A93425DD8122B2AD8122B59D801A2A1
:101B100052F823F08F1B0008691B00087B1B00088C
:101B2000BD1B0008C31B0008C31B0008C31B000823
:101B3000C31B0008C31B0008C31B0008C31B00080D
:101B4000C31B0008C31B0008C31B0008C31B0008FD
:101B5000C31B0008C31B0008711B0008851B00087D
:101B6000794A934213D02CE03B68DB683B6229E062
:101B70003B68DB6804333B6224E03B68DB68083386
:101B80003B621FE03B68DB680C333B621AE03B685A
:101B90009B68002B02D104233B6213E03B689B68E7
:101BA000012B05D108233B627B68FA691A6109E0C1
:101BB00008233B627B68FA695A6103E000233B62B9
:101BC00000E000BFBB69FF2B01D87B6801E07B68A8
:101BD00004337B61BB69FF2B02D87B6A9B0002E068
:101BE0007B6A083B9B003B617B691A680F213B695C
:101BF00001FA03F3DB431A40396A3B6901FA03F344
:101C00001A437B691A603B685B6803F08053002BC2
:101C100000F0B1804D4B9B694C4A43F00103936146
:101C20004A4B9B6903F00103BB60BB68484A7B6A6F
:101C30009B08023352F82330FB607B6A03F00303F6
:101C40009B000F2202FA03F3DB43FA681340FB60A8
:101C50007B68404A934213D07B683F4A93420DD041
:101C60007B683E4A934207D07B683D4A934201D14C
:101C7000032306E0042304E0022302E0012300E042
:101C800000237A6A02F0030292009340FA68134339
:101C9000FB602F497B6A9B080233FA6841F82320D6
:101CA0003B685B6803F48013002B06D02D4B9A68C9
:101CB0002C49BB6913438B6006E02A4B9A68BB69C9
:101CC000DB43284913408B603B685B6803F40013D7
:101CD000002B06D0234BDA682249BB691343CB6043
:101CE00006E0204BDA68BB69DB431E491340CB603A
:101CF0003B685B6803F40033002B06D0194B5A682D
:101D00001849BB6913434B6006E0164B5A68BB6920
:101D1000DB43144913404B603B685B6803F480333A
:101D2000002B21D00F4B1A680E49BB6913430B607F
:101D300021E000BF0000321000003110000022102E
:101D400000002110000012100000111000100240CD
:101D50000000014000080140000C0140001001405B
:101D600000140140000401400B4B1A68BB69DB43BF
:101D7000094913400B607B6A01337B623B681A6838
:101D80007B6A22FA03F3002B7FF48EAE00BF00BF04
:101D90002C37BD4680BC70470004014080B483B03E
:101DA00000AF78600B467B8013467B707B78002BFE
:101DB00003D07A887B681A6103E07B881A047B6809
:101DC0001A6100BF0C37BD4680BC704780B586B035
:101DD00000AF78607B68002B01D1012372E27B6841
:101DE0001B6803F00103002B00F08780924B5B68B7
:101DF00003F00C03042B0CD08F4B5B6803F00C0337
:101E0000082B12D18C4B5B6803F48033B3F5803F11
:101E10000BD1894B1B6803F40033002B6CD07B681B
:101E20005B68002B68D101234CE27B685B68B3F5EB
:101E3000803F06D1804B1B687F4A43F48033136098
:101E40002EE07B685B68002B0CD17B4B1B687A4AC9
:101E500023F480331360784B1B68774A23F4802384
:101E600013601DE07B685B68B3F5A02F0CD1724B4B
:101E70001B68714A43F4802313606F4B1B686E4AE2
:101E800043F4803313600BE06B4B1B686A4A23F406
:101E900080331360684B1B68674A23F48023136008
:101EA0007B685B68002B13D0FFF7CAFA386108E043
:101EB000FFF7C6FA02463B69D31A642B01D9032304
:101EC00000E25D4B1B6803F40033002BF0D014E0FC
:101ED000FFF7B6FA386108E0FFF7B2FA02463B694D
:101EE000D31A642B01D90323ECE1534B1B6803F491
:101EF0000033002BF0D100E000BF7B681B6803F0CB
:101F00000203002B63D04C4B5B6803F00C03002BE7
:101F10000BD0494B5B6803F00C03082B1CD1464BDC
:101F20005B6803F48033002B16D1434B1B6803F02E
:101F30000203002B05D07B681B69012B01D0012314
:101F4000C0E13D4B1B6823F0F8027B685B69DB0056
:101F5000394913430B603AE07B681B69002B20D0A2
:101F6000364B01221A60FFF76BFA386108E0FFF781
:101F700067FA02463B69D31A022B01D90323A1E178
:101F80002D4B1B6803F00203002BF0D02A4B1B687B
:101F900023F0F8027B685B69DB00274913430B6081
:101FA00015E0264B00221A60FFF74AFA386108E074
:101FB000FFF746FA02463B69D31A022B01D90323E5
:101FC00080E11D4B1B6803F00203002BF0D17B68FE
:101FD0001B6803F00803002B3AD07B689B69002B39
:101FE00019D0174B01221A60FFF72AFA386108E06E
:101FF000FFF726FA02463B69D31A022B01D90323C5
:1020000060E10D4B5B6A03F00203002BF0D001206E
:1020100000F09CFA1CE00A4B00221A60FFF710FA4D
:1020200038610FE0FFF70CFA02463B69D31A022B26
:1020300008D9032346E100BF0010024000004242DD
:1020400080044242924B5B6A03F00203002BE9D109
:102050007B681B6803F00403002B00F0A6800023BC
:10206000FB758B4BDB6903F08053002B0DD1884B44
:10207000DB69874A43F08053D361854BDB6903F00A
:102080008053BB60BB680123FB75824B1B6803F464
:102090008073002B18D17F4B1B687E4A43F48073FA
:1020A0001360FFF7CDF9386108E0FFF7C9F9024680
:1020B0003B69D31A642B01D9032303E1754B1B68D9
:1020C00003F48073002BF0D07B68DB68012B06D112
:1020D0006F4B1B6A6E4A43F0010313622DE07B686D
:1020E000DB68002B0CD16A4B1B6A694A23F00103A1
:1020F0001362674B1B6A664A23F0040313621CE0F9
:102100007B68DB68052B0CD1614B1B6A604A43F08E
:10211000040313625E4B1B6A5D4A43F001031362C2
:102120000BE05B4B1B6A5A4A23F001031362584BC6
:102130001B6A574A23F0040313627B68DB68002B99
:1021400015D0FFF77DF938610AE0FFF779F902460B
:102150003B69D31A41F28832934201D90323B1E09B
:102160004B4B1B6A03F00203002BEED014E0FFF789
:1021700067F938610AE0FFF763F902463B69D31A51
:1021800041F28832934201D903239BE0404B1B6A02
:1021900003F00203002BEED1FB7D012B05D13C4B5C
:1021A000DB693B4A23F08053D3617B68DB69002BFA
:1021B00000F08780364B5B6803F00C03082B61D07E
:1021C0007B68DB69022B46D1334B00221A60FFF794
:1021D00037F9386108E0FFF733F902463B69D31A53
:1021E000022B01D903236DE0294B1B6803F0007318
:1021F000002BF0D17B681B6AB3F5803F08D1244BDC
:102200005B6823F400327B689B68214913434B6071
:102210001F4B5B6823F474127B68196A7B685B6AE6
:102220000B431B4913434B601B4B01221A60FFF702
:1022300007F9386108E0FFF703F902463B69D31A52
:10224000022B01D903233DE0114B1B6803F00073FF
:10225000002BF0D035E0104B00221A60FFF7F0F8A9
:10226000386108E0FFF7ECF802463B69D31A022B0D
:1022700001D9032326E0064B1B6803F00073002BF3
:10228000F0D11EE07B68DB69012B07D1012319E047
:102290000010024000700040600042420B4B5B683F
:1022A000FB60FB6803F480327B681B6A9A4206D1AC
:1022B000FB6803F470127B685B6A9A4201D00123C9
:1022C00000E0002318461837BD4680BD00100240CC
:1022D00080B584B000AF786039607B68002B01D195
:1022E0000123D0E06A4B1B6803F007033A689A4267
:1022F00010D9674B1B6823F0070265493B681343FD
:102300000B60634B1B6803F007033A689A4201D0E5
:102310000123B8E07B681B6803F00203002B20D088
:102320007B681B6803F00403002B05D0594B5B68E6
:10233000584A43F4E06353607B681B6803F008036A
:10234000002B05D0534B5B68524A43F460535360F3
:10235000504B5B6823F0F0027B689B684D49134348
:102360004B607B681B6803F00103002B40D07B6847
:102370005B68012B07D1474B1B6803F40033002B2C
:1023800015D101237FE07B685B68022B07D1414BAD
:102390001B6803F00073002B09D1012373E03D4B50
:1023A0001B6803F00203002B01D101236BE0394BC2
:1023B0005B6823F003027B685B68364913434B601C
:1023C000FFF73EF8F8600AE0FFF73AF80246FB68CC
:1023D000D31A41F28832934201D9032353E02D4BA3
:1023E0005B6803F00C027B685B689B009A42EBD150
:1023F000274B1B6803F007033A689A4210D2244B1C
:102400001B6823F0070222493B6813430B60204BF3
:102410001B6803F007033A689A4201D0012332E0B7
:102420007B681B6803F00403002B08D0194B5B6822
:1024300023F4E0627B68DB68164913434B607B68DA
:102440001B6803F00803002B09D0124B5B6823F4D0
:1024500060527B681B69DB000E4913434B6000F040
:1024600021F802460B4B5B681B0903F00F030A4976
:10247000CB5C22FA03F3094A1360094B1B68184628
:10248000FEF79CFF002318461037BD4680BD00BFF5
:102490000020024000100240203B00080000002005
:1024A0000400002080B487B000AF0023FB6000234D
:1024B000BB6000237B6100237B6000233B611E4BDC
:1024C0005B68FB60FB6803F00C03042B02D0082B55
:1024D00003D027E0194B3B6127E0FB689B0C03F01E
:1024E0000F03174AD35C7B60FB6803F48033002B37
:1024F00010D0114B5B685B0C03F00103114AD35CF5
:10250000BB607B680D4A03FB02F2BB68B2FBF3F3CE
:102510007B6104E07B680C4A02FB03F37B617B690F
:102520003B6102E0054B3B6100BF3B6918461C372D
:10253000BD4680BC704700BF0010024000127A0008
:10254000303B0008403B000800093D0080B485B0E6
:1025500000AF78600A4B1B680A4AA2FB03235B0AA0
:102560007A6802FB03F3FB6000BFFB685A1EFA6047
:10257000002BF9D100BF00BF1437BD4680BC7047A7
:1025800000000020D34D621080B582B000AF7860AB
:102590007B68002B01D1012376E07B685B6A002B0E
:1025A00008D17B685B68B3F5827F09D07B68002225
:1025B000DA6105E07B6800221A617B6800225A61BB
:1025C0007B6800229A627B6893F85130DBB2002B63
:1025D00006D17B68002283F850207868FEF70CFE55
:1025E0007B68022283F851207B681B681A687B682D
:1025F0001B6822F040021A607B685B6803F48272F9
:102600007B689B6803F404431A437B68DB6803F42C
:1026100000631A437B681B6903F002031A437B685B
:102620005B6903F001031A437B689B6903F4007341
:102630001A437B68DB6903F038031A437B681B6A23
:1026400003F0800342EA03017B689B6A03F40052B3
:102650007B681B680A431A607B689B691A0C7B685D
:102660001B6802F004025A607B681B68DA697B68A9
:102670001B6822F40062DA617B6800225A657B687D
:10268000012283F85120002318460837BD4680BD3B
:1026900080B586B000AFF860B9601346FB800023B8
:1026A000FB75FB6893F85030012B01D1022397E0B2
:1026B000FB68012283F85020FB6893F85130DBB2AD
:1026C000012B02D00223FB7585E0BB68002B02D0F2
:1026D000FB88002B02D10123FB757CE0FB68032201
:1026E00083F85120FB6800225A65FB68BA681A63B8
:1026F000FB68FA889A86FB68FA88DA86FB6800220B
:102700009A63FB6800225A64FB6800221A64FB6823
:1027100000229A87FB680022DA87FB689B68B3F582
:10272000004F0FD1FB681B681A68FB681B6822F01A
:1027300040021A60FB681B681A68FB681B6842F459
:1027400080421A60FB689B6C274ADA62FB689B6CCC
:10275000264A9A62FB689B6C254A1A63FB689B6C4D
:1027600000225A63FB68986CFB681B6B1946FB6878
:102770001B680C331A46FB68DB8E9BB2FEF7F6FF34
:102780000346002B08D0FB685B6D43F01002FB682A
:102790005A650123FB751EE0FB681B681B6803F08C
:1027A0004003402B07D0FB681B681A68FB681B6856
:1027B00042F040021A60FB681B685A68FB681B689D
:1027C00042F020025A60FB681B685A68FB681B686D
:1027D00042F002025A60FB68002283F85020FB7D21
:1027E00018461837BD4680BDD12800082B280008A0
:1027F000ED28000880B483B000AF786000BF0C37CC
:10280000BD4680BC704780B483B000AF786000BF25
:102810000C37BD4680BC704780B483B000AF786091
:1028200000BF0C37BD4680BC704780B586B000AF96
:1028300078607B685B6A7B61FEF702FE38617B68CB
:102840001B681B6803F02003202B3BD07B691B68AF
:102850005A687B691B6822F020025A607B691B68FA
:102860005A687B691B6822F002025A603A69642147
:10287000786900F0E3F80346002B05D07B695B6DB7
:1028800043F020027B695A657B699B68002B0AD163
:102890000023FB607B691B68DB68FB607B691B684E
:1028A0009B68FB60FB687B690022DA867B690122FA
:1028B00083F851207B695B6D002B03D07869FFF7AB
:1028C000ABFF02E07869FFF795FF1837BD4680BD82
:1028D00080B584B000AF78607B685B6AFB60F868A5
:1028E000FFF791FF00BF1037BD4680BD80B584B0B3
:1028F00000AF78607B685B6AFB60FB681B685A68A6
:10290000FB681B6822F003025A60FB685B6D43F0B2
:102910001002FB685A65FB68012283F85120F868B1
:10292000FFF77AFF00BF1037BD4680BD80B588B085
:1029300000AFF860B9603B601346FB71FEF780FDA5
:102940000246BB6A9B1A3A681344FB61FEF778FDA6
:10295000B861394B1B685B011B0DFA6902FB03F37D
:102960007B6154E03B68B3F1FF3F50D0FEF768FD58
:102970000246BB69D31AFA699A4202D9FB69002B55
:102980003DD1FB681B685A68FB681B6822F0E002B7
:102990005A60FB685B68B3F5827F11D1FB689B6866
:1029A000B3F5004F04D0FB689B68B3F5806F07D187
:1029B000FB681B681A68FB681B6822F040021A60FB
:1029C000FB689B6AB3F5005F0FD1FB681B681A6850
:1029D000FB681B6822F400521A60FB681B681A68C7
:1029E000FB681B6842F400521A60FB68012283F8FE
:1029F0005120FB68002283F85020032317E07B69F5
:102A0000002B01D10023FB617B69013B7B61FB68EB
:102A10001B689A68BB681340BA689A420CBF0123CE
:102A20000023DBB21A46FB799A429BD10023184659
:102A30002037BD4680BD00BF0000002080B586B0B5
:102A400002AFF860B9607A607B680093BB680022CF
:102A50008021F868FFF76AFF0346002B07D0FB6868
:102A60005B6D43F02002FB685A65032300E00023FE
:102A700018461037BD4680BD03460244934200D13C
:102A8000704703F8011BF9E770B500260C4D0D4C9B
:102A9000641BA410A64209D101F036F800260A4DA5
:102AA0000A4C641BA410A64205D170BD55F8043B26
:102AB00098470136EEE755F8043B98470136F2E7B0
:102AC000203D0008203D0008203D0008243D00086E
:102AD00030B5204D21F00044AC4202460B4687B091
:102AE00006D80022002307B0BDE8304000F07CB8D3
:102AF000194DAC4203D9FDF72FFB07B030BD02AA38
:102B000000F0EAF900F00300012809D0022811D0F2
:102B1000B8B9DDE90423DDE9020100F065F8ECE76E
:102B20000090DDE90423DDE9020100F01DF901F167
:102B30000041E2E7DDE90423DDE9020100F054F899
:102B4000F5E70123DDE902010093DDE9042300F04C
:102B50000BF9D2E7FB21E93FFFFFEF7F30B5204DB6
:102B600021F00044AC4202460B4687B006D8002351
:102B700000220093002300F0F7F804E0194DAC4266
:102B800003D9FDF7E9FA07B030BD02AA00F0A4F9B5
:102B900000F00300012809D002280ED0C0B9DDE9F9
:102BA000020101230093DDE90423E4E7DDE90423C6
:102BB000DDE9020100F018F8E5E70123DDE9020193
:102BC0000093DDE9042300F0CFF801F10041DAE7DA
:102BD000DDE90423DDE9020100F006F8F5E700BFB6
:102BE000FB21E93FFFFFEF7F2DE9F74F21F0004682
:102BF000B6F1795F80468946CDE9002304D2FDF71E
:102C0000FDFE002800F0868042464B46404649467D
:102C1000FDF75AFC00224E4B04460D46FDF754FCCE
:102C20003FA3D3E9002382468B4620462946FDF781
:102C30004BFC3DA3D3E90023FDF790FA22462B4637
:102C4000FDF742FC3AA3D3E90023FDF785FA2246BB
:102C50002B46FDF739FC38A3D3E90023FDF77EFAB4
:102C600022462B46FDF730FC35A3D3E90023FDF7C0
:102C700073FA22462B46FDF727FC33A3D3E9002342
:102C8000FDF76CFA22462B46FDF71EFC22462B462A
:102C9000FDF71AFCDDE9002304460D46404649468F
:102CA000FDF712FC0B46024629462046FDF754FA72
:102CB000284B80469E4289460ED802460B46504617
:102CC0005946FDF749FA024600200B462249FDF716
:102CD00043FA03B0BDE8F08F0024204B22469E4209
:102CE0008CBF1F4DA6F500152B4600201A49FDF795
:102CF00033FA224606460F462B4650465946FDF704
:102D00002BFA42464B46FDF727FA02460B46304661
:102D10003946DCE700201049DBE700BFAFF3008055
:102D2000D43888BEE9FAA8BDC4B1B4BD9EEE213E38
:102D3000AD529C804F7E923E9015CB19A001FA3E79
:102D40007751C1166CC1563F4C5555555555A53F49
:102D50000000E03F3233D33F0000F03F0000E93F86
:102D60000000D23F000000002DE9F04F1F4621F087
:102D70000043B3F1795F04460D46164685B003D291
:102D8000FDF73CFE002851D022462B46204629461E
:102D9000FDF79AFB82468B4602460B4620462946A3
:102DA000FDF792FB3EA3D3E90023804689465046B7
:102DB0005946FDF789FB3CA3D3E90023FDF7CCF985
:102DC00052465B46FDF780FB39A3D3E90023FDF7AC
:102DD000C5F952465B46FDF777FB37A3D3E90023DD
:102DE000FDF7BAF952465B46FDF76EFB34A3D3E913
:102DF0000023FDF7B3F90E9BCDE90001DBB90246D4
:102E00000B4650465946FDF75FFB2FA3D3E900233D
:102E1000FDF7A2F942464B46FDF756FB02460B462C
:102E200020462946FDF79AF904460D4620462946D4
:102E300005B0BDE8F08F002230463946244BFDF73F
:102E400043FBDDE90023CDE9020140464946FDF799
:102E50003BFB02460B46DDE90201FDF77DF95246D8
:102E60005B46FDF731FB32463B46FDF775F916A38D
:102E7000D3E9002306460F4640464946FDF724FBAA
:102E800002460B4630463946FDF768F902460B46C6
:102E900020462946FDF760F9C6E700BFAFF3008082
:102EA0007CD5CF5A3AD9E53DEB9C2B8AE6E55A3ED4
:102EB0007DFEB157E31DC73ED561C119A0012A3F70
:102EC000A6F810111111813F495555555555C53F6B
:102ED0000000E03F000000002DE9F04FC44B21F05E
:102EE00000488DB0984506460F461446049107D811
:102EF000C2E9006700230022C4E90223002526E07E
:102F0000BC4B984576D8049BBB4D002BAAA3D3E9B4
:102F1000002338DDFDF720F9A84506460F461AD0F4
:102F2000A7A3D3E90023FDF717F902460B46804615
:102F3000894630463946FDF70FF9A1A3D3E90023AE
:102F4000FDF70AF90125C4E90089C4E90201284610
:102F50000DB0BDE8F08F9CA3D3E90023FDF7FCF88A
:102F60009BA3D3E9002306460F46FDF7F5F802467A
:102F70000B468046894630463946FDF7EDF894A366
:102F8000D3E90023DCE7FDF7E9F8A84506460F463C
:102F900018D08BA3D3E90023FDF7E0F802460B46D7
:102FA0008046894630463946FDF7D6F884A3D3E9F2
:102FB0000023FDF7D3F84FF0FF35C4E90089C4E9D9
:102FC0000201C4E780A3D3E90023FDF7C7F880A37B
:102FD000D3E9002306460F46FDF7C0F802460B462C
:102FE0008046894630463946FDF7B6F878A3D3E9DE
:102FF0000023DEE7814B984500F2CF8000F062F9B4
:1030000075A3D3E9002306460F46FDF75DFA0022BB
:103010007B4BFDF7A3F8FDF7F1FC0546FDF7EAF958
:1030200002460B46CDE9022363A3D3E90023FDF753
:103030004BFA02460B4630463946FDF78DF860A341
:10304000D3E9002382468B46DDE90201FDF73CFA15
:103050001F2D06460F460CDC6A4B6A1E53F82230C1
:10306000434506D032463B4650465946FDF774F874
:103070000EE03B46324650465946FDF76DF84FEAA2
:1030800028530593C1F30A53C3EB1853102B02DCEA
:10309000C4E9000139E04CA3D3E90023DDE90201D2
:1030A000FDF712FA06460F4602460B4650465946B1
:1030B000FDF752F802460B4680468946504659466F
:1030C000FDF74AF832463B46FDF746F840A3D3E900
:1030D000002306460F46DDE90201FDF7F5F9324609
:1030E0003B46FDF739F802460B4606460F4640467A
:1030F0004946FDF731F8059AC1F30A53D31A312B2B
:1031000020DCC246CB46C4E90001D4E90089504620
:1031100042464B465946FDF71FF83B463246FDF7FF
:103120001BF8049BC4E90201002BBFF610AF09F1A4
:103130000043636001F10043C4F80080A060E360D5
:103140006D4204E726A3D3E90023DDE90201FDF780
:10315000BBF906460F4602460B4640464946FCF779
:10316000FBFF02460B4682468B4640464946FCF72B
:10317000F3FF32463B46FCF7EFFF1BA3D3E90023E6
:1031800006460F46DDE90201FDF79EF932463B4651
:10319000FCF7E2FF06460F4664E71B4B984535D91E
:1031A00002460B46FCF7D8FFC4E90201C4E900015E
:1031B000A4E600BFAFF3008000004054FB21F93FBC
:1031C0003163621A61B4D03D0000601A61B4D03D31
:1031D0007370032E8A19A33B83C8C96D305FE43F27
:1031E0000000002E8A19A33BC14920259A837B3910
:1031F000FB21E93F7BD90240FB21F93FFB2139410B
:103200000000E03F443B0008FFFFEF7F4FEA2855F6
:10321000A5F21645A8EB05510F46FDF7EFFBFDF7AC
:10322000E9F802460B4630463946CDE90623FCF75D
:1032300093FF0022214BFDF747F90F460646FDF7A5
:10324000DDFBFDF7D7F802460B4630463946CDE99F
:103250000823FCF781FF0022184BFDF735F94FF0EA
:10326000030800260027CDE90A010DF13009324696
:1032700079E902013B46C24608F1FF38FDF78CFBB5
:103280000028F4D10E4B2A460193022321460093D5
:1032900006A8534600F01AF8049B0546002BBFF61B
:1032A00056AED4E9002101F10043C4E90023D4E97A
:1032B000022101F10043C4E9022341E7000070410B
:1032C000C43B000821F00043194670472DE9F04F38
:1032D000ADF5197D08930491B64BA29912F1140F24
:1032E00053F82130A8BFD41E0293089BB8BF002416
:1032F00003F1FF330693A4BF182394FBF3F46FF09C
:10330000170304FB033303EB020A069A029BA71A76
:1033100003EB0208A39B002503EB8709002200238F
:10332000099020AE454514DD4FF00008089A20AB07
:1033300003EBC2050DF5E07B029B984535DC099B4C
:103340000022A3F1080900232F460026CDE900231F
:103350001FE0EF420BD459F82500CDE90023FDF71B
:1033600049F8DDE90023E6E802010135DAE7104615
:103370001946F8E7D7E90023F9E90201FDF7A4F8B7
:1033800002460B46DDE90001FCF7E8FECDE900014D
:103390000136069B083F9E42ECDDDDE9002308F183
:1033A0000108EBE802230835C6E7029B0CAA02EBF2
:1033B00083030B93A39BDDF808B003EB84030A930C
:1033C00098AB03EBCB0353E9284570AB03EBCB037E
:1033D0000CAE9846B1465F460793002FA8F1080847
:1033E00071DC52462046294600F096FA00224FF042
:1033F0007F5304460D46FDF767F800F005FB0022F9
:103400006D4BFDF761F802460B4620462946FCF756
:10341000A3FE0D460446FDF7F1FA0590FCF7EAFF1E
:1034200002460B4620462946FCF796FEBAF1000FED
:10343000804689466DDD0BF1FF310CAB53F821302E
:10344000059CCAF1180043FA00F2144482409B1A0A
:103450000CAA42F82130CAF11702059413410093D7
:10346000009B002B64DD00226FF07F411446059B1A
:1034700001330593934500F3AB80BAF1000F07DDEC
:10348000BAF1010F00F0B280BAF1020F00F0B9807A
:10349000009B022B4CD142464B4600204749FCF78B
:1034A0005BFE80468946002C42D0524600204349AC
:1034B00000F032FA02460B4640464946FCF74CFE05
:1034C0008046894634E000223D4B20462946FCF7E1
:1034D000FBFFFDF793FAFCF78DFF02460B46CDE9A3
:1034E00000230022374BFCF7EFFF02460B46204635
:1034F0002946FCF731FEFDF781FAD8E9002349F8A7
:10350000040BDDE90001FCF729FE013F04460D46EE
:1035100063E706D10BF1FF330CAA52F82330DB1519
:103520009DE70022284BFDF755FA00283FD1009077
:103530000022002340464946FDF72EFA002800F0FD
:10354000AF8000220BF1FF3302998B4261DA002A2F
:1035500076D00BF1FF3B0CAB53F82B30AAF1180AD5
:10356000002BF6D052460020144900F0D5F95D46F4
:1035700006460F464FF0000970ABDFF844A04FEA53
:10358000CB0403EBCB08002D80F2C0805D46002DFC
:10359000C0F2F0800D4B4FF00009069370AB4FF076
:1035A000000A002703EBC508ABEB0506D6E00223B3
:1035B000009358E7103D0008000020400000F03F55
:1035C0000000703E000070410000E03FD03C000869
:1035D00056F8043B44B923B1C3F1807346F8043C68
:1035E00001231C46013245E7CB1AF7E70BF1FF3206
:1035F0000CAB53F82230C3F316030CA941F8223068
:1036000046E70BF1FF320CAB53F82230C3F315033E
:10361000F3E70CA951F82310013B0A4394E7013466
:1036200053F8042D002AFAD0089B20AA5B440BF122
:10363000010802EBC3055C44444504DAA346BFE637
:1036400001240B9BECE70A9BAB4653F82800FCF7E0
:10365000D1FE4FF0000900260027099BC5E90001B3
:10366000083B0093069B994507DD079B08F101087D
:10367000E3E9026708350793DEE7009909F10109DC
:10368000F1E9022300917BE80201FCF71DFF0246ED
:103690000B4630463946FCF761FD06460F46E1E72A
:1036A000CAF100024046494600F036F90022974B25
:1036B00004460D46FDF78EF900B30022944B2046D8
:1036C0002946FCF701FFFDF799F90646FCF792FE43
:1036D00000228E4BFCF7F8FE0B4602462946204698
:1036E000FCF73AFDFDF78AF90CAB43F82B000BF120
:1036F000010B0AF1180A43F82B6033E720462946EC
:10370000FDF77CF90CAB43F82B002BE70CAB53F81F
:103710002500FCF76FFE32463B46FCF7D5FE4A46D5
:1037200068E80201534630463946FCF7CDFE013DBC
:1037300006460F4627E7DDF818C0F8E80223FCE844
:103740000201CDF818C0FCF7BFFE02460B46484602
:103750005146FCF703FD81468A460137029B9F4292
:1037600001DCBE42E7DA48AB03EBC606C6E9009AC5
:10377000013D0CE7A29B022B09DC002B2CDC4ED078
:10378000059B03F007000DF5197DBDE8F08FA29BA6
:10379000032BF5D148AB1C442546DA46BAF1000F9D
:1037A00063DC2546DA46BAF1010F7BDC00200021FC
:1037B000BBF1010F00F39380DDE94878DDE94A565B
:1037C000009B002B40F09280049BC3E90078C3E982
:1037D0000256C3E90401D3E75D460020002148AB4F
:1037E0001C44002D32DA009B002B35D0024601F13B
:1037F0000043049C0125C4E9002302460B46DDE991
:103800004801FCF7A9FC48ACAB4528DA009B13B192
:1038100001F100431946049BC3E90201B0E700200F
:10382000002148AB1C44BBF1000F08DA009B13B128
:1038300001F100431946049BC3E90001A0E774E8C5
:103840000223FCF78BFC0BF1FF3BECE774E802234F
:10385000FCF784FC013DC4E702460B46C9E7F4E9E6
:103860000223FCF77BFC0135CEE7D5E9002355E9BF
:10387000028940464946CDE90223FCF76FFC024627
:103880000B4606460F4640464946FCF765FCDDE917
:103890000223FCF763FC65E802010AF1FF3AC5E97F
:1038A00000677BE7D5E9002355E902894046494690
:1038B000CDE90223FCF752FC02460B4606460F46B2
:1038C00040464946FCF748FCDDE90223FCF746FC8C
:1038D00065E802010AF1FF3AC5E9006763E774E8A9
:1038E0000223FCF73BFC0BF1FF3B61E7049B049ACE
:1038F00008F100441F605C609D6006F10043D360E6
:1039000001F10043106153613AE700BF00007041CC
:103910000000703E000000002DE9F0481646C1F39B
:103920000A5283468C460B4682B921F0004303437A
:1039300039D02F4B0022FCF7C7FD2E4B83469E4209
:103940008C460DDA26A3D3E900231BE040F2FF7773
:10395000BA4209D10246FCF701FC83468C4622E0BC
:103960000B46C1F30A52363A4CF250318E420CDD0E
:103970001DA3D3E900231C464FEADC7161F3DF7419
:1039800021461D48FCF7A0FDE7E740F2FE713244F6
:103990008A42EDDC002A0ADD23F0FF4323F4E00332
:1039A00043EA0255AC4658466146BDE8F08812F13C
:1039B000350F09DA0CF0004343F0D27141F4B7310E
:1039C0000E4841F01F01BDE723F0FF43363223F4D8
:1039D000E00343EA0255584629460022084BD1E746
:1039E00059F3F8C21F6EA5019C7500883CE4377E30
:1039F00000005043B03CFFFF9C75008859F3F8C2AB
:103A00000000903C000000002DE9F041C1F30A578E
:103A1000A7F2FF36132E02460B460C46054680469B
:103A200035DC002E17DA34A3D3E90023FCF796FB2C
:103A300000220023FCF7D8FF50B1002C57DA24F005
:103A400000442C430025AC422D4C08BF4FF00044ED
:103A500023462A4624E02B4F374101EA070C5CEA53
:103A6000000C1DD024A3D3E90023FCF777FB002230
:103A70000023FCF7B9FF0028EAD0002CBEBF4FF4AA
:103A800080133341E418002524EA0704E0E7332ECD
:103A90000ADDB6F5806F03D1FCF760FB02460B46EA
:103AA00010461946BDE8F0814FF0FF3CA7F21347DE
:103AB0002CFA07F70742F3D00FA3D3E90023FCF752
:103AC0004DFB00220023FCF78FFF0028C0D0002C04
:103AD0000ADA142E01D1013406E00123C6F13406BE
:103AE000B3401D444545F6D325EA0705B0E7002558
:103AF0002C46ADE7AFF300809C7500883CE4377E30
:103B00000000F0BFFFFF0F00F8B500BFF8BC08BC15
:103B10009E467047F8B500BFF8BC08BC9E4670478B
:103B2000000000000000000001020304060708096D
:103B300002030405060708090A0B0C0D0E0F1010EE
:103B400001020000FB21F93FFB2109407CD9124012
:103B5000FB2119407A6A1F407CD92240BBFD2540D9
:103B6000FB2129403A462C407A6A2F405C4731407D
:103B70007CD932409C6B3440BBFD3540DB8F3740F5
:103B8000FB2139401BB43A403A463C405AD83D40AC
:103B90007A6A3F404C7E40405C4741406C10424056
:103BA0007CD942408CA243409C6B4440AC3445409D
:103BB000BBFD4540CBC64640DB8F4740EB584840F5
:103BC000FB21494083F9A200444E6E00FC291500F8
:103BD000D1572700DD34F50062DBC0003C99950029
:103BE000419043006351FE00BBDEAB00B761C500EE
:103BF0003A6E2400D24D42004906E00009EA2E0048
:103C00001C92D100EB1DFE0029B11C00E83EA7006C
:103C1000F535820044BB2E009CE98400B426700078
:103C2000417E5F00D6913900538339009CF43900FE
:103C30008B5F840028F9BD00F81F3B00DEFF970072
:103C40000F980500112FEF000A5A8B006D1F6D00B1
:103C5000CF7E360009CB2700464FB7009E663F0057
:103C60002DEA5F00BA277500E5EBC7003D7BF10048
:103C7000F739070092528A00FB6BEA001FB15F0020
:103C8000085D8D00300356007BFC4600F0AB6B00F6
:103C900020BCCF0036F49A00E3A91D005E619100BC
:103CA000081BE60085996500A0145F008D40680040
:103CB00080D8FF0027734D0006063100CA56150054
:103CC000C9A873007BE260006B8CC000000000009C
:103CD00000000040FB21F93F000000002D44743E2D
:103CE000000000809846F83C0000006051CC783B12
:103CF00000000080831BF0390000004020257A3846
:103D0000000000802282E336000000001DF36935C8
:103D10000200000003000000040000000600000094
:043D20003501000861
:043D24001101000881
:0C3D28000024F400100000000100000066
:040000050800134597
:00000001FF
