:020000040800F2
:10000000005000200D030008B1020008B7020008EC
:10001000BD020008C3020008C90200080000000079
:10002000000000000000000000000000CF020008F7
:10003000DB02000800000000E7020008F3020008ED
:100040005503000855030008550300085503000830
:100050005503000855030008550300085503000820
:100060005503000855030008550300085503000810
:100070005503000855030008550300085503000800
:1000800055030008550300085503000855030008F0
:1000900055030008550300085503000855030008E0
:1000A00055030008550300085503000855030008D0
:1000B00055030008550300085503000855030008C0
:1000C00055030008550300085503000855030008B0
:1000D00055030008550300085503000855030008A0
:1000E00055030008550300085503000800000000F0
:1000F0000000000000000000000000000000000000
:0C01000000000000000000005FF808F1A3
:10010C0010B5054C237833B9044B13B10448AFF345
:10011C0000800123237010BD0C00002000000000A3
:10012C007406000808B5034B1BB103490348AFF331
:10013C00008008BD000000001000002074060008BC
:10014C0080B500AF00F002F900F024F80F4B9B686B
:10015C0003F00203002B11D000BF0C4B9B6803F083
:10016C000203002BF9D10A4BDB68094A43F40073F4
:10017C00D3604FF47A7000F04BF9E7E7044BDB687F
:10018C00034A23F40073D360E0E700BF000801408A
:10019C00000C014080B400AF2E4B1B682D4A43F07D
:1001AC000303136000BF2B4B1B6803F00303002BEE
:1001BC00F9D0284B1B68274A43F400231360254BC6
:1001CC005B68244A23F480335360224B5B68214ADA
:1001DC0043F4002353601F4B5B681E4A43F0040337
:1001EC0053601C4B9B681B4A43F404039360194BEC
:1001FC009B69184A43F00C039361174B164ADB6852
:10020C00D360154B5B68144A43F030035360124BB8
:10021C005B68114A23F0400353600F4B5B680E4A36
:10022C0023F0800353600D4B1B680C4A23F0010331
:10023C0013600A4B1B68094A23F002031360074B37
:10024C001B68064A43F00803136000BFBD4680BC20
:10025C00704700BF00100240000C01400008014034
:10026C0080B483B000AF0E4B9B690D4A43F0010381
:10027C0093610B4B9B6903F001037B607B68084B1C
:10028C00DB69074A43F08053D361054BDB6903F00C
:10029C0080533B603B6800BF0C37BD4680BC704749
:1002AC000010024080B400AFFEE780B400AFFEE760
:1002BC0080B400AFFEE780B400AFFEE780B400AFBF
:1002CC00FEE780B400AF00BFBD4680BC704780B471
:1002DC0000AF00BFBD4680BC704780B400AF00BF0C
:1002EC00BD4680BC704780B500AF00F075F800BF0C
:1002FC0080BD80B400AF00BFBD4680BC704700001D
:10030C00FFF7F7FF0B480C490C4A002302E0D458C6
:10031C00C4500433C4188C42F9D3094A094C002345
:10032C0001E013600432A242FBD300F079F9FFF72D
:10033C0007FF7047000000200C0000209406000806
:10034C000C0000202C000020FEE7000080B500AF60
:10035C00084B1B68074A43F010031360032000F09E
:10036C002BF90F2000F008F8FFF77AFF002318464E
:10037C0080BD00BF0020024080B582B000AF786025
:10038C00124B1A68124B1B7819464FF47A73B3FB55
:10039C00F1F3B2FBF3F3184600F035F90346002BEA
:1003AC0001D001230EE07B680F2B0AD8002279685C
:1003BC004FF0FF3000F00BF9064A7B681360002306
:1003CC0000E0012318460837BD4680BD0000002020
:1003DC00080000200400002080B400AF054B1B78FF
:1003EC001A46054B1B681344034A136000BFBD46F5
:1003FC0080BC7047080000202800002080B400AFAB
:10040C00024B1B681846BD4680BC70472800002074
:10041C0080B584B000AF7860FFF7F0FFB8607B6800
:10042C00FB60FB68B3F1FF3F05D00A4B1B781A4603
:10043C00FB681344FB6000BFFFF7E0FF0246BB689C
:10044C00D31AFA689A42F7D800BF00BF1037BD46DE
:10045C0080BD00BF0800002080B485B000AF78607C
:10046C007B6803F00703FB600C4BDB68BB60BA686E
:10047C004FF6FF031340BB60FB681A02BB681343C3
:10048C0043F0BF6343F40033BB60044ABB68D360E2
:10049C0000BF1437BD4680BC704700BF00ED00E0C4
:1004AC0080B400AF044BDB681B0A03F0070318464B
:1004BC00BD4680BC704700BF00ED00E080B483B047
:1004CC0000AF03463960FB7197F90730002B0ADB4C
:1004DC003B68DAB20C4997F907301201D2B20B44DF
:1004EC0083F800230AE03B68DAB20849FB7903F091
:1004FC000F03043B1201D2B20B441A7600BF0C3727
:10050C00BD4680BC704700BF00E100E000ED00E09C
:10051C0080B489B000AFF860B9607A60FB6803F012
:10052C000703FB61FB69C3F10703042B28BF0423FA
:10053C00BB61FB690433062B02D9FB69033B00E06A
:10054C0000237B614FF0FF32BB6902FA03F3DA43FD
:10055C00BB681A407B699A404FF0FF317B6901FA06
:10056C0003F3D9437B680B40134318462437BD462D
:10057C0080BC704780B582B000AF78607B68013B6F
:10058C00B3F1807F01D301230FE00A4A7B68013B62
:10059C0053600F214FF0FF30FFF790FF054B002207
:1005AC009A60044B07221A60002318460837BD4690
:1005BC0080BD00BF10E000E080B582B000AF786075
:1005CC007868FFF749FF00BF0837BD4680BD80B58E
:1005DC0086B000AF0346B9607A60FB7300237B6181
:1005EC00FFF75EFF78617A68B9687869FFF790FF6A
:1005FC00024697F90F3011461846FFF75FFF00BF10
:10060C001837BD4680BD80B582B000AF7860786881
:10061C00FFF7B0FF034618460837BD4680BD000003
:10062C0070B500260C4D0D4C641BA410A64209D1CC
:10063C0000F01AF800260A4D0A4C641BA410A642BE
:10064C0005D170BD55F8043B98470136EEE755F8D7
:10065C00043B98470136F2E78C0600088C0600082C
:10066C008C06000890060008F8B500BFF8BC08BC62
:10067C009E467047F8B500BFF8BC08BC9E46704754
:04068C003101000830
:040690000D01000850
:0C0694000024F400100000000100000031
:040000050800030DDF
:00000001FF
