:020000040800F2
:1000000000500020250C0008C10B0008C90B000897
:10001000D10B0008D90B0008E10B0008000000001C
:10002000000000000000000000000000E90B0008D4
:10003000F50B000800000000010C00080D0C000882
:100040006D0C00086D0C00086D0C00086D0C0008AC
:100050006D0C00086D0C00086D0C00086D0C00089C
:100060006D0C00086D0C00086D0C00086D0C00088C
:100070006D0C00086D0C00086D0C00086D0C00087C
:100080006D0C00086D0C00086D0C00086D0C00086C
:100090006D0C00086D0C00086D0C00086D0C00085C
:1000A0006D0C00086D0C00086D0C00086D0C00084C
:1000B0006D0C00086D0C00086D0C00086D0C00083C
:1000C0006D0C00086D0C00086D0C00086D0C00082C
:1000D0006D0C00086D0C00086D0C00086D0C00081C
:1000E0006D0C00086D0C00086D0C0008000000008D
:1000F0000000000000000000000000000000000000
:0C01000000000000000000005FF808F1A3
:1001100010B5054C237833B9044B13B10448AFF341
:1001200000800123237010BD0C000020000000009F
:100130008C0F000808B5034B1BB103490348AFF30C
:10014000008008BD00000000100000208C0F000897
:1001500081F0004102E000BF83F0004330B54FEA78
:1001600041044FEA430594EA050F08BF90EA020FE5
:100170001FBF54EA000C55EA020C7FEA645C7FEA78
:10018000655C00F0E2804FEA5454D4EB5555B8BF9B
:100190006D420CDD2C4480EA020281EA030382EA0C
:1001A000000083EA010180EA020281EA0303362D9E
:1001B00088BF30BD11F0004F4FEA01314FF4801C71
:1001C0004CEA113102D0404261EB410113F0004F83
:1001D0004FEA03334CEA133302D0524263EB43033A
:1001E00094EA050F00F0A780A4F10104D5F1200ED8
:1001F0000DDB02FA0EFC22FA05F2801841F1000133
:1002000003FA0EF2801843FA05F359410EE0A5F106
:1002100020050EF1200E012A03FA0EFC28BF4CF037
:10022000020C43FA05F3C01851EBE37101F00045ED
:1002300007D54FF0000EDCF1000C7EEB00006EEBFA
:100240000101B1F5801F1BD3B1F5001F0CD3490884
:100250005FEA30004FEA3C0C04F101044FEA4452DB
:1002600012F5800F80F09A80BCF1004F08BF5FEA62
:10027000500C50F1000041EB045141EA050130BD42
:100280005FEA4C0C404141EB0101013C28BFB1F554
:10029000801FE9D291F0000F04BF01460020B1FA9F
:1002A00081F308BF2033A3F10B03B3F120020CDA72
:1002B0000C3208DD02F1140CC2F10C0201FA0CF050
:1002C00021FA02F10CE002F11402D8BFC2F1200CB5
:1002D00001FA02F120FA0CFCDCBF41EA0C0190406B
:1002E000E41AA2BF01EB0451294330BD6FEA0404B4
:1002F0001F3C1CDA0C340EDC04F11404C4F120029F
:1003000020FA04F001FA02F340EA030021FA04F3B0
:1003100045EA030130BDC4F10C04C4F1200220FA07
:1003200002F001FA04F340EA0300294630BD21FA45
:1003300004F0294630BD94F0000F83F4801306BF0B
:1003400081F480110134013D4EE77FEA645C18BFFF
:100350007FEA655C29D094EA050F08BF90EA020F96
:1003600005D054EA000C04BF1946104630BD91EA8E
:10037000030F1EBF0021002030BD5FEA545C05D191
:100380004000494128BF41F0004130BD14F58004D0
:100390003CBF01F5801130BD01F0004545F0FE4144
:1003A00041F470014FF0000030BD7FEA645C1ABF79
:1003B000194610467FEA655C1CBF0B46024650EAB0
:1003C000013406BF52EA033591EA030F41F40021DC
:1003D00030BD00BF90F0000F04BF0021704730B562
:1003E0004FF4806404F132044FF000054FF0000137
:1003F00050E700BF90F0000F04BF0021704730B5F8
:100400004FF4806404F1320410F0004548BF4042CC
:100410004FF000013EE700BF42004FEAE2014FEA21
:1004200031014FEA02701FBF12F07F4393F07F4FFC
:1004300081F06051704732F07F4208BF704793F0FF
:100440007F4F04BF41F40021704730B54FF4607412
:1004500001F0004521F000411CE700BF50EA010215
:1004600008BF704730B54FF000050AE050EA0102BE
:1004700008BF704730B511F0004502D5404261EB2E
:1004800041014FF4806404F132045FEA915C3FF46F
:10049000D8AE4FF003025FEADC0C18BF03325FEA0C
:1004A000DC0C18BF033202EBDC02C2F1200300FABD
:1004B00003FC20FA02F001FA03FE40EA0E0021FAE2
:1004C00002F11444BDE600BF70B54FF0FF0C4CF4D0
:1004D000E06C1CEA11541DBF1CEA135594EA0C0F82
:1004E00095EA0C0F00F0DEF82C4481EA030621EABD
:1004F0004C5123EA4C5350EA013518BF52EA0335F8
:1005000041F4801143F4801338D0A0FB02CE4FF0A9
:100510000005E1FB02E506F00042E0FB03E54FF0D9
:100520000006E1FB03569CF0000F18BF4EF0010ED1
:10053000A4F1FF04B6F5007F64F5407404D25FEACD
:100540004E0E6D4146EB060642EAC62141EA555180
:100550004FEAC52040EA5E504FEACE2EB4F1FD0CC2
:1005600088BFBCF5E06F1ED8BEF1004F08BF5FEA40
:10057000500E50F1000041EB045170BD06F00046F2
:1005800046EA010140EA020081EA0301B4EB5C049F
:10059000C2BFD4EB0C0541EA045170BD41F4801197
:1005A0004FF0000E013C00F3AB8014F1360FDEBFBC
:1005B000002001F0004170BDC4F10004203C35DA98
:1005C0000C341BDC04F11404C4F1200500FA05F31B
:1005D00020FA04F001FA05F240EA020001F00042BC
:1005E00021F0004110EBD37021FA04F642EB060132
:1005F0005EEA430E08BF20EAD37070BDC4F10C045C
:10060000C4F1200500FA04F320FA05F001FA04F21F
:1006100040EA020001F0004110EBD37041F100010B
:100620005EEA430E08BF20EAD37070BDC4F1200516
:1006300000FA05F24EEA020E20FA04F301FA05F27E
:1006400043EA020321FA04F001F0004121FA04F226
:1006500020EA020000EBD3705EEA430E08BF20EAF6
:10066000D37070BD94F0000F0FD101F00046400030
:1006700041EB010111F4801F08BF013CF7D041EAB2
:10068000060195F0000F18BF704703F000465200B6
:1006900043EB030313F4801F08BF013DF7D043EA87
:1006A0000603704794EA0C0F0CEA135518BF95EA3D
:1006B0000C0F0CD050EA410618BF52EA4306D1D1C4
:1006C00081EA030101F000414FF0000070BD50EAE3
:1006D000410606BF1046194652EA430619D094EA6D
:1006E0000C0F02D150EA013613D195EA0C0F05D157
:1006F00052EA03361CBF104619460AD181EA0301AB
:1007000001F0004141F0FE4141F470014FF0000062
:1007100070BD41F0FE4141F4780170BD70B54FF0FD
:10072000FF0C4CF4E06C1CEA11541DBF1CEA13557D
:1007300094EA0C0F95EA0C0F00F0A7F8A4EB05045F
:1007400081EA030E52EA03354FEA013100F0888056
:100750004FEA03334FF0805545EA131343EA12631F
:100760004FEA022245EA111545EA10654FEA0026D4
:100770000EF000419D4208BF964244F1FD0404F58D
:10078000407402D25B084FEA3202B61A65EB0305E9
:100790005B084FEA32024FF480104FF4002CB6EBA6
:1007A000020E75EB030E22BFB61A754640EA0C0026
:1007B0005B084FEA3202B6EB020E75EB030E22BF66
:1007C000B61A754640EA5C005B084FEA3202B6EBA7
:1007D000020E75EB030E22BFB61A754640EA9C0066
:1007E0005B084FEA3202B6EB020E75EB030E22BF36
:1007F000B61A754640EADC0055EA060E18D04FEAF4
:10080000051545EA16754FEA06164FEAC30343EA93
:1008100052734FEAC2025FEA1C1CC0D111F4801F60
:100820000BD141EA00014FF000004FF0004CB6E759
:1008300011F4801F04BF01430020B4F1FD0C88BFF8
:10084000BCF5E06F3FF6AFAEB5EB030C04BFB6EB03
:10085000020C5FEA500C50F1000041EB045170BDF6
:100860000EF0004E4EEA113114EB5C04C2BFD4EB23
:100870000C0541EA045170BD41F480114FF0000EA7
:10088000013C90E645EA060E8DE60CEA135594EA23
:100890000C0F08BF95EA0C0F3FF43BAF94EA0C0F26
:1008A0000AD150EA01347FF434AF95EA0C0F7FF49B
:1008B00025AF104619462CE795EA0C0F06D152EAEF
:1008C00003353FF4FDAE1046194622E750EA4106D3
:1008D00018BF52EA43067FF4C5AE50EA41047FF4E4
:1008E0000DAF52EA43057FF4EBAE12E74FEA410247
:1008F000B2F1E04324BFB3F5001CDCF1FE5C0DD97E
:1009000001F0004C4FEAC0024CEA5070B2F1004FC7
:1009100040EB830008BF20F00100704711F0804FCA
:1009200021D113F13872BCBF01F00040704741F48F
:1009300080114FEA5252C2F11802C2F1200C10FA93
:100940000CF320FA02F018BF40F001004FEAC12377
:100950004FEAD32303FA0CFC40EA0C0023FA02F31B
:100960004FEA4303CCE77FEA625307D150EA0133F1
:100970001EBF4FF0FE4040F44000704701F00040C1
:1009800040F0FE4040F40000704700BF80B500AF6B
:1009900000F06EF900F042F800F05EF800F004F8A4
:1009A00000F08AF8FCE7000080B400AF1A4B1B6827
:1009B000194A43F00303136000BF174B1B6803F091
:1009C0000203002BF9D0144B1B68134A43F4002395
:1009D0001360114B5B68104A23F4803353600E4B55
:1009E0005B680D4A43F4A01353600B4B5B680A4AE3
:1009F00043F002035360084B5B68074A43F48043AB
:100A00005360054B9B68044A03F40403936000BFE2
:100A1000BD4680BC704700BF0010024080B400AFEC
:100A20000B4B9B690A4A43F004039361094B4FF057
:100A300044321A60074B4FF044325A60054B1B6832
:100A4000044A23F00F03136000BFBD4680BC70470B
:100A5000001002400008014080B400AF134B9B69B6
:100A6000124A43F400739361114B5B68104A23F4FC
:100A7000702353600E4B9B680D4A43F00203936052
:100A80000B4B9B680A4A23F400639360084B9B68F6
:100A9000074A43F480139360054B9B68044A43F470
:100AA0006023936000BFBD4680BC704700100240C9
:100AB000002401400000000080B500AF4FF4FA7040
:100AC00000F038F9224B9B68214A43F00103936000
:100AD0001F4B9B681E4A43F48003936000BF1C4B6E
:100AE0001B6803F00203002BF9D0194BDB6C9AB2A0
:100AF000184B1A80174B1B881846FFF77BFC10A376
:100B0000D3E90023FFF7E0FC02460B4610461946E6
:100B10000DA3D3E90023FFF701FE02460B46104662
:100B20001946FFF7E3FE03460B4A1360084B9B6828
:100B3000074A23F00103936000BF80BDAFF300803C
:100B4000295C8FC2F52800400000000000FEAF4085
:100B500000240140280000202C00002080B485B033
:100B600000AF154B9B69144A43F001039361124B8C
:100B70009B6903F00103BB60BB680F4BDB690E4A46
:100B800043F08053D3610C4BDB6903F080537B60EF
:100B90007B680A4B5B68FB60FB6823F0E063FB60EB
:100BA000FB6843F00073FB60044AFB68536000BFBE
:100BB0001437BD4680BC7047001002400000014061
:100BC00080B400AF00BFFDE780B400AF00BFFDE719
:100BD00080B400AF00BFFDE780B400AF00BFFDE709
:100BE00080B400AF00BFFDE780B400AF00BFBD46DA
:100BF00080BC704780B400AF00BFBD4680BC70476A
:100C000080B400AF00BFBD4680BC704780B500AF68
:100C100000F074F800BF80BD80B400AF00BFBD46D7
:100C200080BC7047FFF7F8FF0B480C490C4A0023C3
:100C300002E0D458C4500433C4188C42F9D3094A92
:100C4000094C002301E013600432A242FBD300F000
:100C500079F9FFF79BFE7047000000200C00002090
:100C6000AC0F00080C00002034000020FEE700005C
:100C700080B500AF084B1B68074A43F010031360B0
:100C8000032000F02BF90F2000F008F8FFF766FFB3
:100C90000023184680BD00BF0020024080B582B00E
:100CA00000AF7860124B1A68124B1B7819464FF44C
:100CB0007A73B3FBF1F3B2FBF3F3184600F035F9A6
:100CC0000346002B01D001230EE07B680F2B0AD8CE
:100CD000002279684FF0FF3000F00BF9064A7B687C
:100CE0001360002300E0012318460837BD4680BD8D
:100CF00000000020080000200400002080B400AFA5
:100D0000054B1B781A46054B1B681344034A1360B6
:100D100000BFBD4680BC70470800002030000020A6
:100D200080B400AF024B1B681846BD4680BC7047BC
:100D30003000002080B584B000AF7860FFF7F0FF8E
:100D4000B8607B68FB60FB68B3F1FF3F05D00A4BDE
:100D50001B781A46FB681344FB6000BFFFF7E0FFF7
:100D60000246BB68D31AFA689A42F7D800BF00BFA0
:100D70001037BD4680BD00BF0800002080B485B09C
:100D800000AF78607B6803F00703FB600C4BDB6807
:100D9000BB60BA684FF6FF031340BB60FB681A02E2
:100DA000BB68134343F0BF6343F40033BB60044AA2
:100DB000BB68D36000BF1437BD4680BC704700BF1E
:100DC00000ED00E080B400AF044BDB681B0A03F0C9
:100DD00007031846BD4680BC704700BF00ED00E029
:100DE00080B483B000AF03463960FB7197F90730D8
:100DF000002B0ADB3B68DAB20C4997F90730120185
:100E0000D2B20B4483F800230AE03B68DAB2084907
:100E1000FB7903F00F03043B1201D2B20B441A76A4
:100E200000BF0C37BD4680BC704700BF00E100E04A
:100E300000ED00E080B489B000AFF860B9607A607E
:100E4000FB6803F00703FB61FB69C3F10703042B95
:100E500028BF0423BB61FB690433062B02D9FB695D
:100E6000033B00E000237B614FF0FF32BB6902FAD5
:100E700003F3DA43BB681A407B699A404FF0FF31B5
:100E80007B6901FA03F3D9437B680B40134318468F
:100E90002437BD4680BC704780B582B000AF786013
:100EA0007B68013BB3F1807F01D301230FE00A4A45
:100EB0007B68013B53600F214FF0FF30FFF790FF3D
:100EC000054B00229A60044B07221A600023184643
:100ED0000837BD4680BD00BF10E000E080B582B09D
:100EE00000AF78607868FFF749FF00BF0837BD465C
:100EF00080BD80B586B000AF0346B9607A60FB73F1
:100F000000237B61FFF75EFF78617A68B9687869D2
:100F1000FFF790FF024697F90F3011461846FFF78A
:100F20005FFF00BF1837BD4680BD80B582B000AFFF
:100F300078607868FFF7B0FF034618460837BD466B
:100F400080BD000070B500260C4D0D4C641BA41034
:100F5000A64209D100F01AF800260A4D0A4C641B7B
:100F6000A410A64205D170BD55F8043B9847013640
:100F7000EEE755F8043B98470136F2E7A40F000866
:100F8000A40F0008A40F0008A80F0008F8B500BFC0
:100F9000F8BC08BC9E467047F8B500BFF8BC08BC5A
:040FA0009E467047B2
:040FA400350100080B
:040FA800110100082B
:0C0FAC000024F400100000000100000010
:0400000508000C25BE
:00000001FF
