:020000040800F2
:1000000000200020010600089D050008A505000845
:10001000AD050008B5050008BD050008000000009A
:10002000000000000000000000000000C5050008FE
:10003000D105000800000000DD050008E905000802
:100040004906000849060008490600084906000854
:100050004906000849060008490600084906000844
:100060004906000849060008490600084906000834
:100070004906000849060008490600084906000824
:10008000490600084906000849060008000000006B
:100090000000000000000000000000004906000809
:1000A00049060008490600084906000849060008F4
:1000B00049060008490600084906000849060008E4
:1000C0004906000800000000000000004906000882
:1000D00049060008490600084906000849060008C4
:1000E000490600084906000849060008000000000B
:1000F0000000000000000000000000000000000000
:1001000000000000000000000000000000000000EF
:100110000000000000000000490600084906000831
:1001200000000000000000000000000000000000CF
:1001300000000000000000000000000000000000BF
:1001400000000000000000000000000000000000AF
:10015000000000000000000000000000000000009F
:10016000000000000000000000000000000000008F
:10017000000000000000000000000000000000007F
:10018000000000000000000000000000000000006F
:10019000000000000000000000000000000000005F
:1001A000000000000000000000000000000000004F
:1001B000000000000000000000000000000000003F
:1001C0000000000000000000000000005FF808F1DF
:1001D00010B5054C237833B9044B13B10448AFF381
:1001E00000800123237010BD0C00002000000000DF
:1001F000DC1F000808B5034B1BB103490348AFF3EC
:10020000008008BD0000000010000020DC1F000876
:1002100080B500AF00F019FA00F03EF800F0F8F8F1
:1002200000F08EF800F0CAF80021094800F089FFBC
:1002300000F012F803461A46064B1A80054B1B883D
:1002400000220021024800F0D2FF00BFF0E700BF0B
:10025000580000206E00002080B500AF0C4800F070
:1002600025FB4FF47A710A4800F0C0FB0346002BCF
:1002700006D1074800F0C0FC03469AB2054B1A802D
:10028000034800F087FB034B1B88184680BD00BF66
:10029000280000206C00002080B592B000AF07F16C
:1002A000200328220021184601F06CFE07F10C0300
:1002B00000221A605A609A60DA601A613B46002296
:1002C0001A605A609A6002233B6201233B63102349
:1002D0007B630223FB6300233B644FF480137B6446
:1002E00007F12003184601F087F90346002B01D0DF
:1002F00000F0A4F80F23FB6002233B6100237B6125
:100300000023BB610023FB6107F10C0300211846A9
:1003100001F0F4FB0346002B01D000F08FF802231C
:100320003B600023BB603B46184601F02DFD0346B1
:10033000002B01D000F082F800BF4837BD4680BDD9
:1003400080B584B000AF3B1D00221A605A609A60ED
:10035000184B194A1A60174B00229A60154B00225D
:100360001A73144B00221A75124B4FF46022DA6193
:10037000104B00225A600F4B01221A610D4800F009
:10038000BDF90346002B01D000F058F800237B6034
:100390000123BB600623FB603B1D1946054800F0A6
:1003A00037FC0346002B01D000F048F800BF10379F
:1003B000BD4680BD280000200024014080B582B0E9
:1003C00000AF3B4600221A605A600F4B0F4A1A607A
:1003D0000D4800F094FE0346002B01D000F02EF8EB
:1003E00000233B6000237B603B4600221946064801
:1003F00000F026FF0346002B01D000F01FF800BFDD
:100400000837BD4680BD00BF580000200074004082
:1004100080B483B000AF084B9B69074A43F00403E4
:100420009361054B9B6903F004037B607B6800BF0D
:100430000C37BD4680BC70470010024080B400AF4E
:1004400072B600BF00BFFDE780B485B000AF154BAA
:100450009B69144A43F001039361124B9B6903F0BB
:100460000103BB60BB680F4BDB690E4A43F080534E
:10047000D3610C4BDB6903F080537B607B680A4BD4
:100480005B68FB60FB6823F0E063FB60FB6843F0A4
:100490000073FB60044AFB68536000BF1437BD461D
:1004A00080BC7047001002400000014080B588B059
:1004B00000AF786007F1100300221A605A609A605A
:1004C000DA607B681B68144A934221D1134B9B6905
:1004D000124A43F400739361104B9B6903F4007359
:1004E000FB60FB680D4B9B690C4A43F0040393616E
:1004F0000A4B9B6903F00403BB60BB6801233B61AB
:1005000003237B6107F110031946054800F0F0FE54
:1005100000BF2037BD4680BD0024014000100240CE
:100520000008014080B588B000AF786007F1100383
:1005300000221A605A609A60DA607B681B68144A6D
:10054000934221D1134BDB69124A43F00053D3612C
:10055000104BDB6903F00053FB60FB680D4B9B699C
:100560000C4A43F0040393610A4B9B6903F00403B4
:10057000BB60BB6810233B6103237B6107F1100361
:100580001946054800F0B4FE00BF2037BD4680BDC7
:1005900000740040001002400008014080B400AF29
:1005A00000BFFDE780B400AF00BFFDE780B400AF3F
:1005B00000BFFDE780B400AF00BFFDE780B400AF2F
:1005C00000BFFDE780B400AF00BFBD4680BC7047F0
:1005D00080B400AF00BFBD4680BC704780B400AFA0
:1005E00000BFBD4680BC704780B500AF00F06AF820
:1005F00000BF80BD80B400AF00BFBD4680BC704767
:10060000FFF7F8FF0B480C490C4A002302E0D458CE
:10061000C4500433C4188C42F9D3094A094C00234E
:1006200001E013600432A242FBD301F0B3FCFFF7F8
:10063000EFFD7047000000200C000020342000086F
:100640000C00002074000020FEE780B500AF0320FE
:1006500000F022FD0F2000F005F8FFF7F5FE002363
:10066000184680BD80B582B000AF7860124B1A6822
:10067000124B1B7819464FF47A73B3FBF1F3B2FBBC
:10068000F3F3184600F02FFD0346002B01D00123A1
:100690000EE07B680F2B0AD8002279684FF0FF30FC
:1006A00000F005FD064A7B681360002300E001238B
:1006B00018460837BD4680BD000000200800002015
:1006C0000400002080B400AF054B1B781A46054B90
:1006D0001B681344034A136000BFBD4680BC7047CB
:1006E000080000207000002080B400AF024B1B689F
:1006F0001846BD4680BC70477000002080B586B0AB
:1007000000AF78600023FB7500233B610023BB60D2
:100710000023FB607B68002B01D10123BEE07B68D6
:100720009B68002B7B689B6A002B09D17B680022A9
:10073000DA627B68002283F824207868FFF7B6FE2F
:10074000786800F0B7FB0346FB757B689B6A03F093
:100750001003002B40F09980FB7D002B40F095802A
:100760007B689B6A23F4885323F0020343F0020260
:100770007B689A627B685A687B68DB691A437B688E
:100780001B7B5B001343BA681343BB607B689B68A9
:10079000B3F5807F03D07B689B68012B02D14FF4B7
:1007A000807300E000233A6913433B617B681B7D43
:1007B000012B19D17B681B7B002B09D17B689B69BE
:1007C000013B5A033B69134343F400633B610BE075
:1007D0007B689B6A43F020027B689A627B68DB6AD5
:1007E00043F001027B68DA627B681B685B6823F474
:1007F00069417B681B683A690A435A607B681B68D9
:100800009A68284B13407A681268B9680B43936062
:100810007B689B68B3F5807F03D07B689B68012B66
:1008200004D17B681B69013B1B05FB607B681B686F
:10083000DB6A23F470017B681B68FA680A43DA629A
:100840007B681B689A68184B1340BA689A420BD1B0
:100850007B680022DA627B689B6A23F0030343F023
:1008600001027B689A6218E07B689B6A23F012039E
:1008700043F010027B689A627B68DB6A43F00102F6
:100880007B68DA620123FB7507E07B689B6A43F0B3
:1008900010027B689A620123FB75FB7D18461837AE
:1008A000BD4680BDFDF7E1FFFE0E1FFF80B584B0A1
:1008B00000AF78600023FB737B6893F82430012B32
:1008C00001D1022362E07B68012283F8242078684A
:1008D00000F096FA0346FB73FB7B002B51D17B683B
:1008E0009B6A23F4407323F0010343F480727B6816
:1008F0009A627B689B6A23F480127B689A627B68A9
:100900001B685B6803F48063002B07D07B689B6ADD
:1009100023F4405343F480527B689A627B689B6A5D
:1009200003F48053002B06D07B68DB6A23F00602B9
:100930007B68DA6202E07B680022DA627B68002270
:1009400083F824207B681B686FF002021A607B68C2
:100950001B689B6803F46023B3F5602F08D17B68A4
:100960001B689A687B681B6842F4A0029A600CE0DE
:100970007B681B689A687B681B6842F480129A60E7
:1009800003E07B68002283F82420FB7B18461037A5
:10099000BD4680BD80B584B000AF78600023FB7396
:1009A0007B6893F82430012B01D102231AE07B6885
:1009B000012283F82420786800F07CFA0346FB7358
:1009C000FB7B002B09D17B689B6A23F4885323F0BF
:1009D000010343F001027B689A627B68002283F87E
:1009E0002420FB7B18461037BD4680BD90B587B0EC
:1009F00000AF7860396000237B610023FB60002337
:100A00003B61FFF771FE78617B681B689B6803F4AC
:100A10008073002B0BD07B689B6A43F020027B68BD
:100A20009A627B68002283F824200123D3E07B684C
:100A30001B685B6803F48073002B31D17B681B68F3
:100A4000DB6A03F47003002B2AD121E03B68B3F189
:100A5000FF3F1DD03B68002B07D0FFF745FE024645
:100A60007B69D31A3A689A4212D27B681B681B686A
:100A700003F00203002B0BD17B689B6A43F0040256
:100A80007B689A627B68002283F824200323A2E01B
:100A90007B681B681B6803F00203002BD6D070E054
:100AA0004F4B1C68022001F015FA0346B4FBF3F229
:100AB0007B681B6819694B4B0B40002B18D17B6876
:100AC0001B68D968484B0B40002B11D17B681B6811
:100AD0001969464B0B40002B08D17B681B68D9680D
:100AE000434B0B40002B01D1142320E029231EE0AF
:100AF0007B681B6819693D4B0B40002B06D17B6856
:100B00001B68D9683A4B0B40002B0DD07B681B68E3
:100B10001969384B0B40002B08D17B681B68D968DA
:100B2000344B0B40002B01D1542300E0FC2302FB8B
:100B300003F33B6121E03B68B3F1FF3F1AD03B6810
:100B4000002B07D0FFF7D0FD02467B69D31A3A6825
:100B50009A420FD2FB683A699A420BD97B689B6A2A
:100B600043F004027B689A627B68002283F82420A9
:100B7000032330E0FB680133FB60FB683A699A426B
:100B8000D9D87B681B686FF012021A607B689B6A79
:100B900043F400727B689A627B681B689B6803F46D
:100BA0006023B3F5602F15D17B681B7B002B11D11F
:100BB0007B689B6A23F480727B689A627B689B6A7D
:100BC00003F48053002B05D17B689B6A43F001023C
:100BD0007B689A62002318461C37BD4690BD00BF53
:100BE00000000020244992242449920092244912B2
:100BF000922449004992240080B483B000AF786009
:100C00007B681B68DB6C18460C37BD4680BC7047A0
:100C100080B485B000AF786039600023FB73002397
:100C2000BB607B6893F82430012B01D10223DCE008
:100C30007B68012283F824203B685B68062B1CD864
:100C40007B681B68596B3B685A6813469B001344CA
:100C5000053B1F2202FA03F3DB4319403B68186887
:100C60003B685A6813469B001344053B00FA03F2A5
:100C70007B681B680A435A633CE03B685B680C2B4B
:100C80001CD87B681B68196B3B685A6813469B002D
:100C90001344233B1F2202FA03F3DB4319403B6852
:100CA00018683B685A6813469B001344233B00FABC
:100CB00003F27B681B680A431A631BE07B681B68AE
:100CC000D96A3B685A6813469B001344413B1F2274
:100CD00002FA03F3DB4319403B6818683B685A6823
:100CE00013469B001344413B00FA03F27B681B68E8
:100CF0000A43DA623B681B68092B1CD97B681B68B6
:100D0000D9683B681A6813465B0013441E3B0722F0
:100D100002FA03F3DB4319403B6898683B681A68A2
:100D200013465B0013441E3B00FA03F27B681B680A
:100D30000A43DA6019E07B681B6819693B681A6826
:100D400013465B001344072202FA03F3DB43194006
:100D50003B6898683B681A6813465B00134400FAC6
:100D600003F27B681B680A431A613B681B68102BFF
:100D700003D03B681B68112B32D17B681B681D4A6E
:100D8000934225D17B681B689B6803F40003002B0A
:100D900026D17B681B689A687B681B6842F4000256
:100DA0009A603B681B68102B1AD1134B1B68134ABF
:100DB000A2FB03239A0C13469B0013445B00BB6009
:100DC00002E0BB68013BBB60BB68002BF9D107E0C8
:100DD0007B689B6A43F020027B689A620123FB7365
:100DE0007B68002283F82420FB7B18461437BD461D
:100DF00080BC7047002401400000002083DE1B43BC
:100E000080B584B000AF78600023FB600023BB6036
:100E10007B681B689B6803F00103012B40D07B6853
:100E20001B689A687B681B6842F001029A601F4B3E
:100E30001B681F4AA2FB03239B0CBB6002E0BB683C
:100E4000013BBB60BB68002BF9D1FFF74DFCF8609C
:100E50001FE0FFF749FC0246FB68D31A022B18D9A2
:100E60007B681B689B6803F00103012B11D07B6832
:100E70009B6A43F010027B689A627B68DB6A43F0EE
:100E800001027B68DA627B68002283F82420012358
:100E900007E07B681B689B6803F00103012BD8D136
:100EA000002318461037BD4680BD00BF000000205B
:100EB00083DE1B4380B584B000AF78600023FB6005
:100EC0007B681B689B6803F00103012B2ED17B68B4
:100ED0001B689A687B681B6822F001029A60FFF722
:100EE00003FCF8601BE0FFF7FFFB0246FB68D31A28
:100EF000022B14D97B681B689B6803F00103012B4C
:100F00000DD17B689B6A43F010027B689A627B6814
:100F1000DB6A43F001027B68DA62012307E07B6849
:100F20001B689B6803F00103012BDCD000231846EB
:100F30001037BD4680BD000080B485B000AF78603A
:100F40007B6803F00703FB600C4BDB68BB60BA688F
:100F50004FF6FF031340BB60FB681A02BB681343E4
:100F600043F0BF6343F40033BB60044ABB68D36003
:100F700000BF1437BD4680BC704700BF00ED00E0E5
:100F800080B400AF044BDB681B0A03F0070318466C
:100F9000BD4680BC704700BF00ED00E080B483B068
:100FA00000AF03463960FB7197F90730002B0ADB6D
:100FB0003B68DAB20C4997F907301201D2B20B4400
:100FC00083F800230AE03B68DAB20849FB7903F0B2
:100FD0000F03043B1201D2B20B441A7600BF0C3748
:100FE000BD4680BC704700BF00E100E000ED00E0BE
:100FF00080B489B000AFF860B9607A60FB6803F034
:101000000703FB61FB69C3F10703042B28BF04231B
:10101000BB61FB690433062B02D9FB69033B00E08B
:1010200000237B614FF0FF32BB6902FA03F3DA431E
:10103000BB681A407B699A404FF0FF317B6901FA27
:1010400003F3D9437B680B40134318462437BD464E
:1010500080BC704780B582B000AF78607B68013B90
:10106000B3F1807F01D301230FE00A4A7B68013B83
:1010700053600F214FF0FF30FFF790FF054B002228
:101080009A60044B07221A60002318460837BD46B1
:1010900080BD00BF10E000E080B582B000AF786096
:1010A0007868FFF749FF00BF0837BD4680BD80B5AF
:1010B00086B000AF0346B9607A60FB7300237B61A2
:1010C000FFF75EFF78617A68B9687869FFF790FF8B
:1010D000024697F90F3011461846FFF75FFF00BF31
:1010E0001837BD4680BD80B582B000AF78607868A3
:1010F000FFF7B0FF034618460837BD4680BD80B5F0
:1011000082B000AF78607B68002B01D1012314E02E
:101110007B681B79DBB2002B05D17B6800225A71FA
:101120007868FFF7FFF97B6802221A717B6800225A
:101130001A617B6801221A71002318460837BD46E0
:1011400080BD80B483B000AF786039607B68002BCD
:1011500001D1012346E07B685B79012B01D1022399
:1011600040E07B6801225A717B6802221A717B6819
:101170001B6819683B6803F0100301229A407B68E2
:101180001B680A431A603B68002B0FD17B681B6801
:101190001B6803F03C033C2B1DD17B681B685A681D
:1011A0007B681B6842F001025A6014E07B681B6890
:1011B0001B6803F470123B6803F010033C2101FA32
:1011C00003F39A4207D17B681B685A687B681B68E7
:1011D00042F002025A607B6801221A717B68002289
:1011E0005A71002318460C37BD4680BC704780B446
:1011F00087B000AFF860B9607A603B6000237B6124
:10120000FB68002B01D1012315E0FB681B687B61A3
:10121000BB68002B05D17A697B68134408337B6176
:1012200004E07A697B68134414337B617B691A4656
:101230003B681360002318461C37BD4680BC7047CE
:1012400080B489B000AFF860B9607A600023FB77A2
:10125000FB68002B02D0BB68002B01D1012342E0C8
:10126000FB685B79012B01D102233CE0FB68012282
:101270005A71FB6802221A71FB681B681B68BB610C
:101280007B6803F0100340F6FE7202FA03F3DB43BF
:10129000BA691340BB61BB681A68BB685B681343DB
:1012A0007B617B6803F010037A6902FA03F3BA6981
:1012B0001343BB61FB681B68BA691A60FB681B6853
:1012C00019687B6803F01003C02202FA03F3DA43C3
:1012D000FB681B680A401A60FB6801221A71FB68F0
:1012E00000225A71FB7F18462437BD4680BC7047E8
:1012F00080B48BB000AF7860396000237B6200233C
:101300003B6269E101227B6A02FA03F3FB613B68FD
:101310001B68FA691340BB61BA69FB699A4240F0E5
:1013200058813B685B689A4A93425ED0984A9342E0
:1013300075D8984A934258D0964A93426FD8964AA5
:10134000934252D0944A934269D8944A93424CD0E3
:10135000924A934263D8924A934246D0904A93422B
:101360005DD8122B2AD8122B59D801A252F823F09B
:10137000EB130008C5130008D71300081914000860
:101380001F1400081F1400081F1400081F14000871
:101390001F1400081F1400081F1400081F14000861
:1013A0001F1400081F1400081F1400081F14000851
:1013B0001F140008CD130008E1130008794A934276
:1013C00013D02CE03B68DB683B6229E03B68DB68BC
:1013D00004333B6224E03B68DB6808333B621FE078
:1013E0003B68DB680C333B621AE03B689B68002B70
:1013F00002D104233B6213E03B689B68012B05D1BB
:1014000008233B627B68FA691A6109E008233B62A2
:101410007B68FA695A6103E000233B6200E000BF89
:10142000BB69FF2B01D87B6801E07B6804337B61DB
:10143000BB69FF2B02D87B6A9B0002E07B6A083BFA
:101440009B003B617B691A680F213B6901FA03F33A
:10145000DB431A40396A3B6901FA03F31A437B699B
:101460001A603B685B6803F08053002B00F0B1808A
:101470004D4B9B694C4A43F0010393614A4B9B6976
:1014800003F00103BB60BB68484A7B6A9B080233D8
:1014900052F82330FB607B6A03F003039B000F22AA
:1014A00002FA03F3DB43FA681340FB607B68404AAF
:1014B000934213D07B683F4A93420DD07B683E4AEB
:1014C000934207D07B683D4A934201D1032306E053
:1014D000042304E0022302E0012300E000237A6AEF
:1014E00002F0030292009340FA681343FB602F4915
:1014F0007B6A9B080233FA6841F823203B685B68EB
:1015000003F48013002B06D02D4B9A682C49BB693D
:1015100013438B6006E02A4B9A68BB69DB4328497A
:1015200013408B603B685B6803F40013002B06D00C
:10153000234BDA682249BB691343CB6006E0204B9A
:10154000DA68BB69DB431E491340CB603B685B68CC
:1015500003F40033002B06D0194B5A681849BB69B5
:1015600013434B6006E0164B5A68BB69DB431449D2
:1015700013404B603B685B6803F48033002B21D041
:101580000F4B1A680E49BB6913430B6021E000BF83
:101590000000321000003110000022100000211065
:1015A0000000121000001110001002400000014065
:1015B00000080140000C01400010014000140140EF
:1015C000000401400B4B1A68BB69DB430949134017
:1015D0000B607B6A01337B623B681A687B6A22FA84
:1015E00003F3002B7FF48EAE00BF00BF2C37BD4647
:1015F00080BC70470004014080B586B000AF7860C1
:101600007B68002B01D1012372E27B681B6803F029
:101610000103002B00F08780924B5B6803F00C0302
:10162000042B0CD08F4B5B6803F00C03082B12D1FA
:101630008C4B5B6803F48033B3F5803F0BD1894B4F
:101640001B6803F40033002B6CD07B685B68002BB5
:1016500068D101234CE27B685B68B3F5803F06D11B
:10166000804B1B687F4A43F4803313602EE07B6815
:101670005B68002B0CD17B4B1B687A4A23F48033C8
:101680001360784B1B68774A23F4802313601DE0B6
:101690007B685B68B3F5A02F0CD1724B1B68714A55
:1016A00043F4802313606F4B1B686E4A43F480330E
:1016B00013600BE06B4B1B686A4A23F480331360A2
:1016C000684B1B68674A23F4802313607B685B6860
:1016D000002B13D0FFF708F8386108E0FFF704F893
:1016E00002463B69D31A642B01D9032300E25D4B08
:1016F0001B6803F40033002BF0D014E0FEF7F4FF76
:10170000386108E0FEF7F0FF02463B69D31A642B0C
:1017100001D90323ECE1534B1B6803F40033002B86
:10172000F0D100E000BF7B681B6803F00203002BD0
:1017300063D04C4B5B6803F00C03002B0BD0494B80
:101740005B6803F00C03082B1CD1464B5B6803F469
:101750008033002B16D1434B1B6803F00203002B90
:1017600005D07B681B69012B01D00123C0E13D4BF3
:101770001B6823F0F8027B685B69DB00394913437F
:101780000B603AE07B681B69002B20D0364B0122AE
:101790001A60FEF7A9FF386108E0FEF7A5FF0246D0
:1017A0003B69D31A022B01D90323A1E12D4B1B68FE
:1017B00003F00203002BF0D02A4B1B6823F0F80241
:1017C0007B685B69DB00274913430B6015E0264B00
:1017D00000221A60FEF788FF386108E0FEF784FFF8
:1017E00002463B69D31A022B01D9032380E11D4B2A
:1017F0001B6803F00203002BF0D17B681B6803F029
:101800000803002B3AD07B689B69002B19D0174B3B
:1018100001221A60FEF768FF386108E0FEF764FFF6
:1018200002463B69D31A022B01D9032360E10D4B19
:101830005B6A03F00203002BF0D0012000F086FA6F
:101840001CE00A4B00221A60FEF74EFF38610FE0E1
:10185000FEF74AFF02463B69D31A022B08D903233D
:1018600046E100BF001002400000424280044242B4
:10187000924B5B6A03F00203002BE9D17B681B6883
:1018800003F00403002B00F0A6800023FB758B4BB4
:10189000DB6903F08053002B0DD1884BDB69874A4D
:1018A00043F08053D361854BDB6903F08053BB6009
:1018B000BB680123FB75824B1B6803F48073002B0C
:1018C00018D17F4B1B687E4A43F480731360FEF788
:1018D0000BFF386108E0FEF707FF02463B69D31AA9
:1018E000642B01D9032303E1754B1B6803F4807358
:1018F000002BF0D07B68DB68012B06D16F4B1B6A95
:101900006E4A43F0010313622DE07B68DB68002B15
:101910000CD16A4B1B6A694A23F001031362674BBF
:101920001B6A664A23F0040313621CE07B68DB68D1
:10193000052B0CD1614B1B6A604A43F00403136210
:101940005E4B1B6A5D4A43F0010313620BE05B4B85
:101950001B6A5A4A23F001031362584B1B6A574A09
:1019600023F0040313627B68DB68002B15D0FEF7BD
:10197000BBFE38610AE0FEF7B7FE02463B69D31AA8
:1019800041F28832934201D90323B1E04B4B1B6AE9
:1019900003F00203002BEED014E0FEF7A5FE386141
:1019A0000AE0FEF7A1FE02463B69D31A41F28832F3
:1019B000934201D903239BE0404B1B6A03F00203CF
:1019C000002BEED1FB7D012B05D13C4BDB693B4A63
:1019D00023F08053D3617B68DB69002B00F08780A4
:1019E000364B5B6803F00C03082B61D07B68DB6926
:1019F000022B46D1334B00221A60FEF775FE386188
:101A000008E0FEF771FE02463B69D31A022B01D9AA
:101A100003236DE0294B1B6803F00073002BF0D10A
:101A20007B681B6AB3F5803F08D1244BDB6A23F047
:101A30000F027B689B6821491343CB621F4B5B6895
:101A400023F474127B68196A7B685B6A0B431B4939
:101A500013434B601B4B01221A60FEF745FE3861B1
:101A600008E0FEF741FE02463B69D31A022B01D97A
:101A700003233DE0114B1B6803F00073002BF0D0F3
:101A800035E0104B00221A60FEF72EFE386108E0A8
:101A9000FEF72AFE02463B69D31A022B01D9032323
:101AA00026E0064B1B6803F00073002BF0D11EE00C
:101AB0007B68DB69012B07D1012319E0001002408C
:101AC00000700040600042420B4B5B68FB60FB68AB
:101AD00003F480327B681B6A9A4206D1FB6803F4E8
:101AE00070127B685B6A9A4201D0012300E00023F8
:101AF00018461837BD4680BD0010024080B584B03E
:101B000000AF786039607B68002B01D10123A0E031
:101B10007B681B6803F00203002B20D07B681B68E6
:101B200003F00403002B05D04C4B5B684B4A43F495
:101B3000E06353607B681B6803F00803002B05D04B
:101B4000464B5B68454A43F460535360434B5B68C4
:101B500023F0F0027B689B68404913434B607B682D
:101B60001B6803F00103002B40D07B685B68012BEE
:101B700007D13A4B1B6803F40033002B15D1012326
:101B800067E07B685B68022B07D1344B1B6803F06E
:101B90000073002B09D101235BE0304B1B6803F07D
:101BA0000203002B01D1012353E02C4B5B6823F08F
:101BB00003027B685B68294913434B60FEF794FD81
:101BC000F8600AE0FEF790FD0246FB68D31A41F286
:101BD0008832934201D903233BE0204B5B6803F03A
:101BE0000C027B685B689B009A42EBD17B681B68A8
:101BF00003F00403002B08D0184B5B6823F4E06269
:101C00007B68DB68154913434B607B681B6803F0F6
:101C10000803002B09D0114B5B6823F460527B68EA
:101C20001B69DB000D4913434B6000F01FF80246AF
:101C30000A4B5B681B0903F00F030949CB5C22FACE
:101C400003F3084A1360084B1B681846FEF70AFDA9
:101C5000002318461037BD4680BD00BF001002406B
:101C6000F41F0008000000200400002080B487B0AA
:101C700000AF0023FB600023BB6000237B610023D7
:101C80007B6000233B611D4B5B68FB60FB6803F0DE
:101C90000C03042B02D0082B03D026E0184B3B6129
:101CA00026E0FB689B0C03F00F03164AD35C7B60B5
:101CB000FB6803F48033002B0FD0104BDB6A03F07A
:101CC0000F03114AD35CBB607B680D4A03FB02F231
:101CD000BB68B2FBF3F37B6104E07B680B4A02FB59
:101CE00003F37B617B693B6102E0054B3B6100BF15
:101CF0003B6918461C37BD4680BC70470010024047
:101D000000127A000C2000081C20000800093D0089
:101D100080B400AF024B1B681846BD4680BC7047BC
:101D20000000002080B500AFFFF7F2FF0246054B30
:101D30005B68DB0A03F007030349CB5C22FA03F379
:101D4000184680BD001002400420000880B485B011
:101D500000AF78600A4B1B680A4AA2FB03235B0AA8
:101D60007A6802FB03F3FB6000BFFB685A1EFA604F
:101D7000002BF9D100BF00BF1437BD4680BC7047AF
:101D800000000020D34D621080B586B000AF7860AF
:101D900000233B610023FB607B681B6803F00103A9
:101DA000002B7DD00023FB75474BDB6903F080538C
:101DB000002B0DD1444BDB69434A43F08053D36180
:101DC000414BDB6903F08053BB60BB680123FB75AB
:101DD0003E4B1B6803F48073002B18D13B4B1B68F0
:101DE0003A4A43F480731360FEF77EFC386108E0E2
:101DF000FEF77AFC02463B69D31A642B01D9032310
:101E00005EE0324B1B6803F48073002BF0D02E4B46
:101E10001B6A03F44073FB60FB68002B2ED07B68C9
:101E20005B6803F44073FA689A4227D0264B1B6A1A
:101E300023F44073FB60264B01221A60244B0022DE
:101E40001A60214AFB681362FB6803F00103002B50
:101E500014D0FEF749FC38610AE0FEF745FC024663
:101E60003B69D31A41F28832934201D9032327E018
:101E7000154B1B6A03F00203002BEED0124B1B6ABA
:101E800023F440727B685B680F4913430B62FB7D50
:101E9000012B05D10C4BDB690B4A23F08053D36136
:101EA0007B681B6803F00203002B08D0064B5B68BD
:101EB00023F440427B689B68034913434B60002333
:101EC00018461837BD4680BD001002400070004023
:101ED0004004424280B584B000AF78600023BB600C
:101EE0000023FB607B68012B03D07B68022B33D07F
:101EF00041E0234B1B6ABB60BB6803F44073B3F53E
:101F0000807F08D1BB6803F00203002B03D04FF49D
:101F10000043FB601FE0BB6803F44073B3F5007F30
:101F200009D1174B5B6A03F00203002B03D049F67B
:101F30004043FB600FE0BB6803F44073B3F5407FA0
:101F400018D10F4B1B6803F40033002B12D04FF253
:101F50002443FB600EE00DE0FFF7E4FE0246084B71
:101F60005B689B0B03F0030301335B00B2FBF3F3ED
:101F7000FB6000E000BFFB6818461037BD4680BD1F
:101F80000010024003460244934200D1704703F818
:101F9000011BF9E770B500260C4D0D4C641BA41015
:101FA000A64209D100F01AF800260A4D0A4C641B1B
:101FB000A410A64205D170BD55F8043B98470136E0
:101FC000EEE755F8043B98470136F2E72C2000086D
:101FD0002C2000082C20000830200008F8B500BF95
:101FE000F8BC08BC9E467047F8B500BFF8BC08BCFA
:041FF0009E46704752
:101FF40000000000000000000102030406070809B5
:102004000000000001020304020304050607080996
:102014000A0B0C0D0E0F101001020304050607082D
:08202400090A0B0C0D0E0F1050
:04202C00F5010008B2
:04203000D1010008D2
:0C2034000024F400100000000100000077
:0400000508000601E8
:00000001FF
