:020000040800F2
:1000000000200020C9040008650400086D040008F1
:10001000750400087D040008850400080000000045
:100020000000000000000000000000008D04000837
:100030009904000800000000A5040008B1040008AD
:100040001105000811050008110500081105000838
:100050001105000811050008110500081105000828
:100060001105000811050008110500081105000818
:100070001105000811050008110500081105000808
:100080001105000811050008110500080000000016
:100090000000000000000000000000001105000842
:1000A00011050008110500081105000811050008D8
:1000B00011050008110500081105000811050008C8
:1000C00011050008000000000000000011050008F4
:1000D00011050008110500081105000811050008A8
:1000E00011050008110500081105000800000000B6
:1000F0000000000000000000000000000000000000
:1001000000000000000000000000000000000000EF
:1001100000000000000000001105000811050008A3
:1001200000000000000000000000000000000000CF
:1001300000000000000000000000000000000000BF
:1001400000000000000000000000000000000000AF
:10015000000000000000000000000000000000009F
:10016000000000000000000000000000000000008F
:10017000000000000000000000000000000000007F
:10018000000000000000000000000000000000006F
:10019000000000000000000000000000000000005F
:1001A000000000000000000000000000000000004F
:1001B000000000000000000000000000000000003F
:1001C0000000000000000000000000005FF808F1DF
:1001D00010B5054C237833B9044B13B10448AFF381
:1001E00000800123237010BD1000002000000000DB
:1001F0007814000808B5034B1BB103490348AFF35B
:10020000008008BD000000001400002078140008E1
:1002100080B500AF00F07DF900F026F800F098F806
:1002200000F062F800210E4800F0F5FA0D4B1B6853
:10023000002200210A4800F044FB012000F0C2F92E
:10024000084B1B680133074A1360064B1B68B3F564
:10025000805FEBDB034B40F6B8321A60E6E700BF85
:100260002C0000200000002080B590B000AF07F106
:10027000180328220021184601F0D2F83B1D002265
:100280001A605A609A60DA601A610223BB61012326
:10029000BB621023FB6202237B630023BB634FF42A
:1002A0008013FB6307F11803184600F00FFD0346A7
:1002B000002B01D000F062F80F237B600223BB60AB
:1002C0000023FB6000233B6100237B613B1D002179
:1002D000184600F07DFF0346002B01D000F04EF8D9
:1002E00000BF4037BD4680BD80B582B000AF3B4601
:1002F00000221A605A60144B144A1A60124800F027
:1003000068FA0346002B01D000F038F800233B6068
:1003100000237B603B46002219460B4800F0FAFAA6
:100320000346002B01D000F029F83B461022194665
:10033000054800F0EFFA0346002B01D000F01EF84C
:1003400000BF0837BD4680BD2C000020007400406F
:1003500080B483B000AF084B9B69074A43F00403A5
:100360009361054B9B6903F004037B607B6800BFCE
:100370000C37BD4680BC70470010024080B400AF0F
:1003800072B600BF00BFFDE780B485B000AF154B6B
:100390009B69144A43F001039361124B9B6903F07C
:1003A0000103BB60BB680F4BDB690E4A43F080530F
:1003B000D3610C4BDB6903F080537B607B680A4B95
:1003C0005B68FB60FB6823F0E063FB60FB6843F065
:1003D0000073FB60044AFB68536000BF1437BD46DE
:1003E00080BC7047001002400000014080B588B01A
:1003F00000AF786007F1100300221A605A609A601B
:10040000DA607B681B68144A934221D1134BDB6985
:10041000124A43F00053D361104BDB6903F00053E1
:10042000FB60FB680D4B9B690C4A43F0040393612E
:100430000A4B9B6903F00403BB60BB6830233B613C
:1004400003237B6107F110031946054800F0BAFA4F
:1004500000BF2037BD4680BD007400400010024040
:100460000008014080B400AF00BFFDE780B400AFDA
:1004700000BFFDE780B400AF00BFFDE780B400AF70
:1004800000BFFDE780B400AF00BFFDE780B400AF60
:1004900000BFBD4680BC704780B400AF00BFBD4602
:1004A00080BC704780B400AF00BFBD4680BC7047C1
:1004B00080B500AF00F06AF800BF80BD80B400AF27
:1004C00000BFBD4680BC7047FFF7F8FF0B480C49E2
:1004D0000C4A002302E0D458C4500433C4188C42A0
:1004E000F9D3094A094C002301E013600432A24207
:1004F000FBD300F09DFFFFF78BFE7047000000204C
:1005000010000020C8140008100000204400002043
:10051000FEE780B500AF032000F028F90F2000F0BF
:1005200005F8FFF731FF0023184680BD80B582B083
:1005300000AF7860124B1A68124B1B7819464FF4C3
:100540007A73B3FBF1F3B2FBF3F3184600F035F91D
:100550000346002B01D001230EE07B680F2B0AD845
:10056000002279684FF0FF3000F00BF9064A7B68F3
:100570001360002300E0012318460837BD4680BD04
:10058000040000200C0000200800002080B400AF10
:10059000054B1B781A46054B1B681344034A13602E
:1005A00000BFBD4680BC70470C000020400000200A
:1005B00080B400AF024B1B681846BD4680BC704734
:1005C0004000002080B584B000AF7860FFF7F0FFF6
:1005D000B8607B68FB60FB68B3F1FF3F05D00A4B56
:1005E0001B781A46FB681344FB6000BFFFF7E0FF6F
:1005F0000246BB68D31AFA689A42F7D800BF00BF18
:100600001037BD4680BD00BF0C00002080B485B00F
:1006100000AF78607B6803F00703FB600C4BDB687E
:10062000BB60BA684FF6FF031340BB60FB681A0259
:10063000BB68134343F0BF6343F40033BB60044A19
:10064000BB68D36000BF1437BD4680BC704700BF95
:1006500000ED00E080B400AF044BDB681B0A03F040
:1006600007031846BD4680BC704700BF00ED00E0A0
:1006700080B483B000AF03463960FB7197F907304F
:10068000002B0ADB3B68DAB20C4997F907301201FC
:10069000D2B20B4483F800230AE03B68DAB208497F
:1006A000FB7903F00F03043B1201D2B20B441A761C
:1006B00000BF0C37BD4680BC704700BF00E100E0C2
:1006C00000ED00E080B489B000AFF860B9607A60F6
:1006D000FB6803F00703FB61FB69C3F10703042B0D
:1006E00028BF0423BB61FB690433062B02D9FB69D5
:1006F000033B00E000237B614FF0FF32BB6902FA4D
:1007000003F3DA43BB681A407B699A404FF0FF312C
:100710007B6901FA03F3D9437B680B401343184606
:100720002437BD4680BC704780B582B000AF78608A
:100730007B68013BB3F1807F01D301230FE00A4ABC
:100740007B68013B53600F214FF0FF30FFF790FFB4
:10075000054B00229A60044B07221A6000231846BA
:100760000837BD4680BD00BF10E000E080B582B014
:1007700000AF78607868FFF749FF00BF0837BD46D3
:1007800080BD80B586B000AF0346B9607A60FB7368
:1007900000237B61FFF75EFF78617A68B96878694A
:1007A000FFF790FF024697F90F3011461846FFF702
:1007B0005FFF00BF1837BD4680BD80B582B000AF77
:1007C00078607868FFF7B0FF034618460837BD46E3
:1007D00080BD80B582B000AF78607B68002B01D10E
:1007E000012314E07B681B79DBB2002B05D17B6809
:1007F00000225A717868FFF7F9FD7B6802221A71AE
:100800007B6800221A617B6801221A710023184656
:100810000837BD4680BD80B483B000AF78603960D2
:100820007B68002B01D1012346E07B685B79012BBB
:1008300001D1022340E07B6801225A717B680222C9
:100840001A717B681B6819683B6803F0100301226A
:100850009A407B681B680A431A603B68002B0FD1E3
:100860007B681B681B6803F03C033C2B1DD17B6835
:100870001B685A687B681B6842F001025A6014E0EA
:100880007B681B681B6803F470123B6803F010035D
:100890003C2101FA03F39A4207D17B681B685A682E
:1008A0007B681B6842F002025A607B6801221A7161
:1008B0007B6800225A71002318460C37BD4680BC65
:1008C000704780B487B000AFF860B9607A603B6071
:1008D00000237B61FB68002B01D1012315E0FB683D
:1008E0001B687B61BB68002B05D17A697B68134468
:1008F00008337B6104E07A697B68134414337B61BD
:100900007B691A463B681360002318461C37BD46B6
:1009100080BC704780B489B000AFF860B9607A607D
:100920000023FB77FB68002B02D0BB68002B01D1B2
:10093000012342E0FB685B79012B01D102233CE0FB
:10094000FB6801225A71FB6802221A71FB681B685E
:100950001B68BB617B6803F0100340F6FE7202FA6D
:1009600003F3DB43BA691340BB61BB681A68BB6819
:100970005B6813437B617B6803F010037A6902FABA
:1009800003F3BA691343BB61FB681B68BA691A6059
:10099000FB681B6819687B6803F01003C02202FA29
:1009A00003F3DA43FB681B680A401A60FB68012204
:1009B0001A71FB6800225A71FB7F18462437BD4626
:1009C00080BC704780B48BB000AF78603960002382
:1009D0007B6200233B6269E101227B6A02FA03F336
:1009E000FB613B681B68FA691340BB61BA69FB692C
:1009F0009A4240F058813B685B689A4A93425ED0C5
:100A0000984A934275D8984A934258D0964A93424E
:100A10006FD8964A934252D0944A934269D8944AE6
:100A200093424CD0924A934263D8924A934246D022
:100A3000904A93425DD8122B2AD8122B59D801A282
:100A400052F823F0BF0A0008990A0008AB0A000810
:100A5000ED0A0008F30A0008F30A0008F30A000888
:100A6000F30A0008F30A0008F30A0008F30A000872
:100A7000F30A0008F30A0008F30A0008F30A000862
:100A8000F30A0008F30A0008A10A0008B50A0008E2
:100A9000794A934213D02CE03B68DB683B6229E043
:100AA0003B68DB6804333B6224E03B68DB68083367
:100AB0003B621FE03B68DB680C333B621AE03B683B
:100AC0009B68002B02D104233B6213E03B689B68C8
:100AD000012B05D108233B627B68FA691A6109E0A2
:100AE00008233B627B68FA695A6103E000233B629A
:100AF00000E000BFBB69FF2B01D87B6801E07B6889
:100B000004337B61BB69FF2B02D87B6A9B0002E048
:100B10007B6A083B9B003B617B691A680F213B693C
:100B200001FA03F3DB431A40396A3B6901FA03F324
:100B30001A437B691A603B685B6803F08053002BA3
:100B400000F0B1804D4B9B694C4A43F00103936127
:100B50004A4B9B6903F00103BB60BB68484A7B6A50
:100B60009B08023352F82330FB607B6A03F00303D7
:100B70009B000F2202FA03F3DB43FA681340FB6089
:100B80007B68404A934213D07B683F4A93420DD022
:100B90007B683E4A934207D07B683D4A934201D12D
:100BA000032306E0042304E0022302E0012300E023
:100BB00000237A6A02F0030292009340FA6813431A
:100BC000FB602F497B6A9B080233FA6841F82320B7
:100BD0003B685B6803F48013002B06D02D4B9A68AA
:100BE0002C49BB6913438B6006E02A4B9A68BB69AA
:100BF000DB43284913408B603B685B6803F40013B8
:100C0000002B06D0234BDA682249BB691343CB6023
:100C100006E0204BDA68BB69DB431E491340CB601A
:100C20003B685B6803F40033002B06D0194B5A680D
:100C30001849BB6913434B6006E0164B5A68BB6901
:100C4000DB43144913404B603B685B6803F480331B
:100C5000002B21D00F4B1A680E49BB6913430B6060
:100C600021E000BF0000321000003110000022100F
:100C700000002110000012100000111000100240AE
:100C80000000014000080140000C0140001001403C
:100C900000140140000401400B4B1A68BB69DB43A0
:100CA000094913400B607B6A01337B623B681A6819
:100CB0007B6A22FA03F3002B7FF48EAE00BF00BFE5
:100CC0002C37BD4680BC70470004014080B586B01B
:100CD00000AF78607B68002B01D1012372E27B6852
:100CE0001B6803F00103002B00F08780924B5B68C8
:100CF00003F00C03042B0CD08F4B5B6803F00C0348
:100D0000082B12D18C4B5B6803F48033B3F5803F22
:100D10000BD1894B1B6803F40033002B6CD07B682C
:100D20005B68002B68D101234CE27B685B68B3F5FC
:100D3000803F06D1804B1B687F4A43F480331360A9
:100D40002EE07B685B68002B0CD17B4B1B687A4ADA
:100D500023F480331360784B1B68774A23F4802395
:100D600013601DE07B685B68B3F5A02F0CD1724B5C
:100D70001B68714A43F4802313606F4B1B686E4AF3
:100D800043F4803313600BE06B4B1B686A4A23F417
:100D900080331360684B1B68674A23F48023136019
:100DA0007B685B68002B13D0FFF702FC386108E01A
:100DB000FFF7FEFB02463B69D31A642B01D90323DC
:100DC00000E25D4B1B6803F40033002BF0D014E00D
:100DD000FFF7EEFB386108E0FFF7EAFB02463B69EC
:100DE000D31A642B01D90323ECE1534B1B6803F4A2
:100DF0000033002BF0D100E000BF7B681B6803F0DC
:100E00000203002B63D04C4B5B6803F00C03002BF8
:100E10000BD0494B5B6803F00C03082B1CD1464BED
:100E20005B6803F48033002B16D1434B1B6803F03F
:100E30000203002B05D07B681B69012B01D0012325
:100E4000C0E13D4B1B6823F0F8027B685B69DB0067
:100E5000394913430B603AE07B681B69002B20D0B3
:100E6000364B01221A60FFF7A3FB386108E0FFF759
:100E70009FFB02463B69D31A022B01D90323A1E150
:100E80002D4B1B6803F00203002BF0D02A4B1B688C
:100E900023F0F8027B685B69DB00274913430B6092
:100EA00015E0264B00221A60FFF782FB386108E04C
:100EB000FFF77EFB02463B69D31A022B01D90323BD
:100EC00080E11D4B1B6803F00203002BF0D17B680F
:100ED0001B6803F00803002B3AD07B689B69002B4A
:100EE00019D0174B01221A60FFF762FB386108E046
:100EF000FFF75EFB02463B69D31A022B01D903239D
:100F000060E10D4B5B6A03F00203002BF0D001207F
:100F100000F068FA1CE00A4B00221A60FFF748FB59
:100F200038610FE0FFF744FB02463B69D31A022BFE
:100F300008D9032346E100BF0010024000004242EE
:100F400080044242924B5B6A03F00203002BE9D11A
:100F50007B681B6803F00403002B00F0A6800023CD
:100F6000FB758B4BDB6903F08053002B0DD1884B55
:100F7000DB69874A43F08053D361854BDB6903F01B
:100F80008053BB60BB680123FB75824B1B6803F475
:100F90008073002B18D17F4B1B687E4A43F480730B
:100FA0001360FFF705FB386108E0FFF701FB02461D
:100FB0003B69D31A642B01D9032303E1754B1B68EA
:100FC00003F48073002BF0D07B68DB68012B06D123
:100FD0006F4B1B6A6E4A43F0010313622DE07B687E
:100FE000DB68002B0CD16A4B1B6A694A23F00103B2
:100FF0001362674B1B6A664A23F0040313621CE00A
:101000007B68DB68052B0CD1614B1B6A604A43F09F
:10101000040313625E4B1B6A5D4A43F001031362D3
:101020000BE05B4B1B6A5A4A23F001031362584BD7
:101030001B6A574A23F0040313627B68DB68002BAA
:1010400015D0FFF7B5FA38610AE0FFF7B1FA0246AA
:101050003B69D31A41F28832934201D90323B1E0AC
:101060004B4B1B6A03F00203002BEED014E0FFF79A
:101070009FFA38610AE0FFF79BFA02463B69D31AF0
:1010800041F28832934201D903239BE0404B1B6A13
:1010900003F00203002BEED1FB7D012B05D13C4B6D
:1010A000DB693B4A23F08053D3617B68DB69002B0B
:1010B00000F08780364B5B6803F00C03082B61D08F
:1010C0007B68DB69022B46D1334B00221A60FFF7A5
:1010D0006FFA386108E0FFF76BFA02463B69D31AF2
:1010E000022B01D903236DE0294B1B6803F0007329
:1010F000002BF0D17B681B6AB3F5803F08D1244BED
:10110000DB6A23F00F027B689B6821491343CB62A3
:101110001F4B5B6823F474127B68196A7B685B6AF7
:101120000B431B4913434B601B4B01221A60FFF713
:101130003FFA386108E0FFF73BFA02463B69D31AF1
:10114000022B01D903233DE0114B1B6803F0007310
:10115000002BF0D035E0104B00221A60FFF728FA80
:10116000386108E0FFF724FA02463B69D31A022BE4
:1011700001D9032326E0064B1B6803F00073002B04
:10118000F0D11EE07B68DB69012B07D1012319E058
:101190000010024000700040600042420B4B5B6850
:1011A000FB60FB6803F480327B681B6A9A4206D1BD
:1011B000FB6803F470127B685B6A9A4201D00123DA
:1011C00000E0002318461837BD4680BD00100240DD
:1011D00080B584B000AF786039607B68002B01D1A6
:1011E0000123A0E07B681B6803F00203002B20D0E2
:1011F0007B681B6803F00403002B05D04C4B5B6835
:101200004B4A43F4E06353607B681B6803F00803B8
:10121000002B05D0464B5B68454A43F4605353604E
:10122000434B5B6823F0F0027B689B6840491343A3
:101230004B607B681B6803F00103002B40D07B6888
:101240005B68012B07D13A4B1B6803F40033002B7A
:1012500015D1012367E07B685B68022B07D1344B13
:101260001B6803F00073002B09D101235BE0304BB6
:101270001B6803F00203002B01D1012353E02C4B28
:101280005B6823F003027B685B68294913434B606A
:10129000FFF78EF9F8600AE0FFF78AF90246FB686B
:1012A000D31A41F28832934201D903233BE0204B09
:1012B0005B6803F00C027B685B689B009A42EBD191
:1012C0007B681B6803F00403002B08D0184B5B6895
:1012D00023F4E0627B68DB68154913434B607B684D
:1012E0001B6803F00803002B09D0114B5B6823F443
:1012F00060527B681B69DB000D4913434B6000F0B3
:101300001FF802460A4B5B681B0903F00F030949EB
:10131000CB5C22FA03F3084A1360084B1B6818469B
:10132000FFF704F9002318461037BD4680BD00BF03
:101330000010024090140008040000200800002063
:1013400080B487B000AF0023FB600023BB600023A4
:101350007B6100237B6000233B611D4B5B68FB606E
:10136000FB6803F00C03042B02D0082B03D026E00B
:10137000184B3B6126E0FB689B0C03F00F03164AF9
:10138000D35C7B60FB6803F48033002B0FD0104BE1
:10139000DB6A03F00F03114AD35CBB607B680D4A24
:1013A00003FB02F2BB68B2FBF3F37B6104E07B68F2
:1013B0000B4A02FB03F37B617B693B6102E0054B57
:1013C0003B6100BF3B6918461C37BD4680BC704777
:1013D0000010024000127A00A0140008B0140008A7
:1013E00000093D0080B485B000AF78600A4B1B68EF
:1013F0000A4AA2FB03235B0A7A6802FB03F3FB6041
:1014000000BFFB685A1EFA60002BF9D100BF00BF75
:101410001437BD4680BC704704000020D34D6210D5
:1014200003460244934200D1704703F8011BF9E7D9
:1014300070B500260C4D0D4C641BA410A64209D1BA
:1014400000F01AF800260A4D0A4C641BA410A642AC
:1014500005D170BD55F8043B98470136EEE755F8C5
:10146000043B98470136F2E7C0140008C014000896
:10147000C0140008C4140008F8B500BFF8BC08BCCC
:101480009E467047F8B500BFF8BC08BC9E46704742
:101490000000000000000000010203040607080924
:1014A00002030405060708090A0B0C0D0E0F1010A5
:1014B0000102030405060708090A0B0C0D0E0F10A4
:0414C000F50100082A
:0414C400D10100084A
:1014C800B80B00000024F400100000000100000028
:04000005080004C922
:00000001FF
